{
  "contractName": "SmartContract",
  "abi": [
    {
      "constant": true,
      "inputs": [],
      "name": "fileHash",
      "outputs": [
        {
          "internalType": "string",
          "name": "",
          "type": "string"
        }
      ],
      "payable": false,
      "stateMutability": "view",
      "type": "function"
    },
    {
      "constant": true,
      "inputs": [],
      "name": "secretKey",
      "outputs": [
        {
          "internalType": "string",
          "name": "",
          "type": "string"
        }
      ],
      "payable": false,
      "stateMutability": "view",
      "type": "function"
    },
    {
      "constant": true,
      "inputs": [],
      "name": "timeout",
      "outputs": [
        {
          "internalType": "uint256",
          "name": "",
          "type": "uint256"
        }
      ],
      "payable": false,
      "stateMutability": "view",
      "type": "function"
    },
    {
      "constant": false,
      "inputs": [
        {
          "internalType": "string",
          "name": "_password",
          "type": "string"
        }
      ],
      "name": "action",
      "outputs": [
        {
          "internalType": "string",
          "name": "",
          "type": "string"
        }
      ],
      "payable": false,
      "stateMutability": "nonpayable",
      "type": "function"
    },
    {
      "constant": false,
      "inputs": [],
      "name": "checkReveal",
      "outputs": [
        {
          "internalType": "bool",
          "name": "",
          "type": "bool"
        }
      ],
      "payable": false,
      "stateMutability": "nonpayable",
      "type": "function"
    },
    {
      "constant": false,
      "inputs": [
        {
          "internalType": "string",
          "name": "_fileHash",
          "type": "string"
        }
      ],
      "name": "setFileHash",
      "outputs": [],
      "payable": false,
      "stateMutability": "nonpayable",
      "type": "function"
    },
    {
      "constant": false,
      "inputs": [
        {
          "internalType": "string",
          "name": "_passwordInhibit",
          "type": "string"
        }
      ],
      "name": "setPasswordInhibit",
      "outputs": [],
      "payable": false,
      "stateMutability": "nonpayable",
      "type": "function"
    },
    {
      "constant": false,
      "inputs": [
        {
          "internalType": "string",
          "name": "_passwordLock",
          "type": "string"
        }
      ],
      "name": "setPasswordLock",
      "outputs": [],
      "payable": false,
      "stateMutability": "nonpayable",
      "type": "function"
    },
    {
      "constant": false,
      "inputs": [
        {
          "internalType": "string",
          "name": "_passwordUnlock",
          "type": "string"
        }
      ],
      "name": "setPasswordUnlock",
      "outputs": [],
      "payable": false,
      "stateMutability": "nonpayable",
      "type": "function"
    },
    {
      "constant": false,
      "inputs": [
        {
          "internalType": "string",
          "name": "_passwordImmediateReveal",
          "type": "string"
        }
      ],
      "name": "setPasswordImmediateReveal",
      "outputs": [],
      "payable": false,
      "stateMutability": "nonpayable",
      "type": "function"
    },
    {
      "constant": false,
      "inputs": [
        {
          "internalType": "uint256",
          "name": "_time",
          "type": "uint256"
        }
      ],
      "name": "setTimeout",
      "outputs": [],
      "payable": false,
      "stateMutability": "nonpayable",
      "type": "function"
    }
  ],
  "bytecode": "0x60806040526001600660006101000a81548160ff021916908315150217905550600060095534801561003057600080fd5b5061100c806100406000396000f3fe608060405234801561001057600080fd5b50600436106100a95760003560e01c806399983be01161007157806399983be014610348578063aaf6c7401461047c578063c58a34cc14610537578063caa5c2aa14610565578063d1939b5a14610587578063f3403ac114610642576100a9565b806317f916d0146100ae57806324c8c698146101695780633a2077fa146101ec578063510e2f9c1461026f57806370dea79a1461032a575b600080fd5b610167600480360360208110156100c457600080fd5b81019080803590602001906401000000008111156100e157600080fd5b8201836020820111156100f357600080fd5b8035906020019184600183028401116401000000008311171561011557600080fd5b91908080601f016020809104026020016040519081016040528093929190818152602001838380828437600081840152601f19601f8201169050808301925050505050505091929192905050506106fd565b005b610171610717565b6040518080602001828103825283818151815260200191508051906020019080838360005b838110156101b1578082015181840152602081019050610196565b50505050905090810190601f1680156101de5780820380516001836020036101000a031916815260200191505b509250505060405180910390f35b6101f46107b5565b6040518080602001828103825283818151815260200191508051906020019080838360005b83811015610234578082015181840152602081019050610219565b50505050905090810190601f1680156102615780820380516001836020036101000a031916815260200191505b509250505060405180910390f35b6103286004803603602081101561028557600080fd5b81019080803590602001906401000000008111156102a257600080fd5b8201836020820111156102b457600080fd5b803590602001918460018302840111640100000000831117156102d657600080fd5b91908080601f016020809104026020016040519081016040528093929190818152602001838380828437600081840152601f19601f820116905080830192505050505050509192919290505050610853565b005b61033261086d565b6040518082815260200191505060405180910390f35b6104016004803603602081101561035e57600080fd5b810190808035906020019064010000000081111561037b57600080fd5b82018360208201111561038d57600080fd5b803590602001918460018302840111640100000000831117156103af57600080fd5b91908080601f016020809104026020016040519081016040528093929190818152602001838380828437600081840152601f19601f820116905080830192505050505050509192919290505050610873565b6040518080602001828103825283818151815260200191508051906020019080838360005b83811015610441578082015181840152602081019050610426565b50505050905090810190601f16801561046e5780820380516001836020036101000a031916815260200191505b509250505060405180910390f35b6105356004803603602081101561049257600080fd5b81019080803590602001906401000000008111156104af57600080fd5b8201836020820111156104c157600080fd5b803590602001918460018302840111640100000000831117156104e357600080fd5b91908080601f016020809104026020016040519081016040528093929190818152602001838380828437600081840152601f19601f820116905080830192505050505050509192919290505050610db8565b005b6105636004803603602081101561054d57600080fd5b8101908080359060200190929190505050610dd2565b005b61056d610de7565b604051808215151515815260200191505060405180910390f35b6106406004803603602081101561059d57600080fd5b81019080803590602001906401000000008111156105ba57600080fd5b8201836020820111156105cc57600080fd5b803590602001918460018302840111640100000000831117156105ee57600080fd5b91908080601f016020809104026020016040519081016040528093929190818152602001838380828437600081840152601f19601f820116905080830192505050505050509192919290505050610e1d565b005b6106fb6004803603602081101561065857600080fd5b810190808035906020019064010000000081111561067557600080fd5b82018360208201111561068757600080fd5b803590602001918460018302840111640100000000831117156106a957600080fd5b91908080601f016020809104026020016040519081016040528093929190818152602001838380828437600081840152601f19601f820116905080830192505050505050509192919290505050610e37565b005b8060059080519060200190610713929190610e9d565b5050565b60008054600181600116156101000203166002900480601f0160208091040260200160405190810160405280929190818152602001828054600181600116156101000203166002900480156107ad5780601f10610782576101008083540402835291602001916107ad565b820191906000526020600020905b81548152906001019060200180831161079057829003601f168201915b505050505081565b60018054600181600116156101000203166002900480601f01602080910402602001604051908101604052809291908181526020018280546001816001161561010002031660029004801561084b5780601f106108205761010080835404028352916020019161084b565b820191906000526020600020905b81548152906001019060200180831161082e57829003601f168201915b505050505081565b8060039080519060200190610869929190610e9d565b5050565b60075481565b6060600260405160200180828054600181600116156101000203166002900480156108d55780601f106108b35761010080835404028352918201916108d5565b820191906000526020600020905b8154815290600101906020018083116108c1575b505091505060405160208183030381529060405280519060200120826040516020018082805190602001908083835b602083106109275780518252602082019150602081019050602083039250610904565b6001836020036101000a0380198251168184511680821785525050505050509050019150506040516020818303038152906040528051906020012014156109e957610970610e51565b60085460405160200180807f53656372657420696e6869626974656420666f72200000000000000000000000815250601501828152602001807f207365636f6e6473206d6f726500000000000000000000000000000000000000815250600d019150506040516020818303038152906040529050610db3565b60036040516020018082805460018160011615610100020316600290048015610a495780601f10610a27576101008083540402835291820191610a49565b820191906000526020600020905b815481529060010190602001808311610a35575b505091505060405160208183030381529060405280519060200120826040516020018082805190602001908083835b60208310610a9b5780518252602082019150602081019050602083039250610a78565b6001836020036101000a038019825116818451168082178552505050505050905001915050604051602081830303815290604052805190602001201415610b0657610ae66000610e65565b6040518060600160405280602d8152602001610f43602d91399050610db3565b60046040516020018082805460018160011615610100020316600290048015610b665780601f10610b44576101008083540402835291820191610b66565b820191906000526020600020905b815481529060010190602001808311610b52575b505091505060405160208183030381529060405280519060200120826040516020018082805190602001908083835b60208310610bb85780518252602082019150602081019050602083039250610b95565b6001836020036101000a038019825116818451168082178552505050505050905001915050604051602081830303815290604052805190602001201415610c5f57610c036001610e65565b6008546040516020018080610f7060379139603701828152602001807f207365636f6e64732066726f6d206e6f770000000000000000000000000000008152506011019150506040516020818303038152906040529050610db3565b60056040516020018082805460018160011615610100020316600290048015610cbf5780601f10610c9d576101008083540402835291820191610cbf565b820191906000526020600020905b815481529060010190602001808311610cab575b505091505060405160208183030381529060405280519060200120826040516020018082805190602001908083835b60208310610d115780518252602082019150602081019050602083039250610cee565b6001836020036101000a038019825116818451168082178552505050505050905001915050604051602081830303815290604052805190602001201415610d9757610d5a610e94565b6040518060400160405280601d81526020017f5468652073656372657420686173206265656e2072657665616c6564210000008152509050610db3565b604051806060016040528060318152602001610fa76031913990505b919050565b8060009080519060200190610dce929190610e9d565b5050565b80600881905550600854420160078190555050565b600060096000815480929190600101919050555060075442118015610e185750600660009054906101000a900460ff165b905090565b8060029080519060200190610e33929190610e9d565b5050565b8060049080519060200190610e4d929190610e9d565b5050565b600854600760008282540192505081905550565b80600660006101000a81548160ff0219169083151502179055508015610e9157610e90600854610dd2565b5b50565b42600781905550565b828054600181600116156101000203166002900490600052602060002090601f016020900481019282601f10610ede57805160ff1916838001178555610f0c565b82800160010185558215610f0c579182015b82811115610f0b578251825591602001919060010190610ef0565b5b509050610f199190610f1d565b5090565b610f3f91905b80821115610f3b576000816000905550600101610f23565b5090565b9056fe53656372657420726576656c6174696f6e2064697361626c656420666f7220756e646566696e65642074696d6553656372657420726576656c6174696f6e20656e61626c65642e20546865207365637265742077696c6c2062652072657665616c656420556e617574686f72697a656421205468652070617373776f726420696e736572746564206973206e6f742076616c69642ea265627a7a723158201297ff7f54f19845622c474725a250d780fa605fec76623c5e8c8b23e243c0a364736f6c63430005100032",
  "source": "// SPDX-License-Identifier: MIT\r\npragma solidity >=0.4.22 <0.9.0;\r\n\r\n/**\r\n@author : Andrei-Stefan Blindu\r\n */\r\n\r\ncontract SmartContract {\r\n    string public fileHash;     // hash to retrieve the encrypted file from IPFS\r\n    string public secretKey;    // key to decrypt the secret file\r\n\r\n    string private passwordInhibit;  // to inhibit revelation for a certain time (timeout)\r\n    string private passwordLock;    // to disable revelation for undefined time\r\n    string private passwordUnlock;  // to enable revelation\r\n    string private passwordImmediateReveal; // to reveal instantly\r\n\r\n    bool private enableRevelation = true;\r\n    uint256 public timeout; \r\n    uint256 private timeSpan;   // time span the secret remains inhibited for   \r\n    int private requestCounter = 0;   \r\n\r\n\r\n    function setEnableRevelation(bool _flag) private {\r\n        enableRevelation = _flag;\r\n        if (_flag) {\r\n            // if revelation was disabled just setting enableRevelation to true is not enough,\r\n            // we have to update the timeout to a future value as well\r\n            setTimeout(timeSpan);\r\n        }\r\n    }\r\n\r\n    function instantRevelation() private {\r\n        // by setting the timeout to the current timestamp I make it expire\r\n        timeout = block.timestamp;\r\n    }\r\n\r\n    function inhibitRevelation() private {\r\n        // we increase the timeout to inhibit revelation for one more time span\r\n        timeout += timeSpan;\r\n    }\r\n\r\n    // FUNCTION THAT DECIDES WHAT ACTION TO EXECUTE ACCORDING TO THE PASSWORD INSERTED\r\n    function action(string memory _password) public returns(string memory) {\r\n        if (keccak256(abi.encodePacked(_password)) == keccak256(abi.encodePacked(passwordInhibit))) {\r\n            inhibitRevelation();\r\n            return string(abi.encodePacked(\"Secret inhibited for \", timeSpan, \" seconds more\"));\r\n        }\r\n        else if (keccak256(abi.encodePacked(_password)) == keccak256(abi.encodePacked(passwordLock))) {\r\n            setEnableRevelation(false);\r\n            return \"Secret revelation disabled for undefined time\";\r\n        }\r\n        else if (keccak256(abi.encodePacked(_password)) == keccak256(abi.encodePacked(passwordUnlock))) {\r\n            setEnableRevelation(true);\r\n            return string(abi.encodePacked(\"Secret revelation enabled. The secret will be revealed \",\r\n                                            timeSpan, \" seconds from now\"));\r\n        }\r\n        else if (keccak256(abi.encodePacked(_password)) == keccak256(abi.encodePacked(passwordImmediateReveal))) {\r\n            instantRevelation();\r\n            return \"The secret has been revealed!\";\r\n        } else {\r\n            return \"Unauthorized! The password inserted is not valid.\";\r\n        }\r\n    }\r\n\r\n    // CHECK IF THE CONDITIONS FOR REVELATION ARE MET \r\n    // This function is called by the devices that monitor the smart contract\r\n    function checkReveal() public returns(bool){\r\n        requestCounter++;   // modify the state of the contract in order to mine another block and update the timestamp\r\n        return ((block.timestamp > timeout) && enableRevelation);\r\n    }\r\n\r\n    /**\r\n    Qui devo scrivere le funzioni che permettono allo smart contract di ricevere le chiavi parziali dai dispositivi\r\n    e di ricostruire la chiave segreta a partire da questi frammenti.\r\n    Per ricevere le chiavi faccio una funzione che aggiunge a un array gli elementi passati come argomento,\r\n    mentre per ricostruire il segreto dovrò usare l'interpolazione di Lagrange come previsto dall'algoritmo di Shamir.\r\n     */\r\n\r\n\r\n    // SETTERS\r\n    function setFileHash(string memory _fileHash) public {\r\n        fileHash = _fileHash;\r\n    }\r\n    function setPasswordInhibit(string memory _passwordInhibit) public {\r\n        passwordInhibit = _passwordInhibit;\r\n    }\r\n    function setPasswordLock(string memory _passwordLock) public {\r\n        passwordLock = _passwordLock;\r\n    }\r\n    function setPasswordUnlock(string memory _passwordUnlock) public {\r\n        passwordUnlock = _passwordUnlock;\r\n    }\r\n    function setPasswordImmediateReveal(string memory _passwordImmediateReveal) public {\r\n        passwordImmediateReveal = _passwordImmediateReveal;\r\n    }\r\n    function setTimeout(uint256 _time) public {\r\n        timeSpan = _time;\r\n        timeout = block.timestamp + timeSpan;\r\n    }\r\n}",
  "sourcePath": "D:\\Desktop\\Tesi\\decentralized_secret_managing_blockchain\\contracts\\SmartContract.sol",
  "compiler": {
    "name": "solc",
    "version": "0.5.16+commit.9c3226ce.Emscripten.clang"
  },
  "schemaVersion": "3.4.3",
  "updatedAt": "2021-10-10T08:20:12.818Z",
  "networkType": "ethereum",
  "devdoc": {
    "author": ": Andrei-Stefan Blindu",
    "methods": {}
  },
  "userdoc": {
    "methods": {
      "setFileHash(string)": {
        "notice": "Qui devo scrivere le funzioni che permettono allo smart contract di ricevere le chiavi parziali dai dispositivi e di ricostruire la chiave segreta a partire da questi frammenti. Per ricevere le chiavi faccio una funzione che aggiunge a un array gli elementi passati come argomento, mentre per ricostruire il segreto dovrò usare l'interpolazione di Lagrange come previsto dall'algoritmo di Shamir."
      }
    }
  }
}