{
  "contractName": "SmartContract",
  "abi": [
    {
      "constant": true,
      "inputs": [],
      "name": "THRESHOLD",
      "outputs": [
        {
          "internalType": "uint256",
          "name": "",
          "type": "uint256"
        }
      ],
      "payable": false,
      "stateMutability": "view",
      "type": "function"
    },
    {
      "constant": true,
      "inputs": [],
      "name": "currentSharesNumber",
      "outputs": [
        {
          "internalType": "uint256",
          "name": "",
          "type": "uint256"
        }
      ],
      "payable": false,
      "stateMutability": "view",
      "type": "function"
    },
    {
      "constant": true,
      "inputs": [],
      "name": "fileHash",
      "outputs": [
        {
          "internalType": "string",
          "name": "",
          "type": "string"
        }
      ],
      "payable": false,
      "stateMutability": "view",
      "type": "function"
    },
    {
      "constant": true,
      "inputs": [
        {
          "internalType": "uint256",
          "name": "",
          "type": "uint256"
        }
      ],
      "name": "partialKeys",
      "outputs": [
        {
          "internalType": "uint256",
          "name": "x",
          "type": "uint256"
        },
        {
          "internalType": "uint256",
          "name": "y",
          "type": "uint256"
        }
      ],
      "payable": false,
      "stateMutability": "view",
      "type": "function"
    },
    {
      "constant": true,
      "inputs": [],
      "name": "secretKey",
      "outputs": [
        {
          "internalType": "uint256",
          "name": "",
          "type": "uint256"
        }
      ],
      "payable": false,
      "stateMutability": "view",
      "type": "function"
    },
    {
      "constant": true,
      "inputs": [],
      "name": "timeout",
      "outputs": [
        {
          "internalType": "uint256",
          "name": "",
          "type": "uint256"
        }
      ],
      "payable": false,
      "stateMutability": "view",
      "type": "function"
    },
    {
      "constant": false,
      "inputs": [
        {
          "internalType": "string",
          "name": "_password",
          "type": "string"
        }
      ],
      "name": "action",
      "outputs": [
        {
          "internalType": "string",
          "name": "",
          "type": "string"
        }
      ],
      "payable": false,
      "stateMutability": "nonpayable",
      "type": "function"
    },
    {
      "constant": false,
      "inputs": [],
      "name": "checkReveal",
      "outputs": [
        {
          "internalType": "bool",
          "name": "",
          "type": "bool"
        }
      ],
      "payable": false,
      "stateMutability": "nonpayable",
      "type": "function"
    },
    {
      "constant": false,
      "inputs": [
        {
          "internalType": "uint256",
          "name": "_partialKey_x",
          "type": "uint256"
        },
        {
          "internalType": "uint256",
          "name": "_partialKey_y",
          "type": "uint256"
        }
      ],
      "name": "sendPartialKey",
      "outputs": [],
      "payable": false,
      "stateMutability": "nonpayable",
      "type": "function"
    },
    {
      "constant": false,
      "inputs": [
        {
          "internalType": "string",
          "name": "_fileHash",
          "type": "string"
        }
      ],
      "name": "setFileHash",
      "outputs": [],
      "payable": false,
      "stateMutability": "nonpayable",
      "type": "function"
    },
    {
      "constant": false,
      "inputs": [
        {
          "internalType": "string",
          "name": "_passwordInhibit",
          "type": "string"
        }
      ],
      "name": "setPasswordInhibit",
      "outputs": [],
      "payable": false,
      "stateMutability": "nonpayable",
      "type": "function"
    },
    {
      "constant": false,
      "inputs": [
        {
          "internalType": "string",
          "name": "_passwordLock",
          "type": "string"
        }
      ],
      "name": "setPasswordLock",
      "outputs": [],
      "payable": false,
      "stateMutability": "nonpayable",
      "type": "function"
    },
    {
      "constant": false,
      "inputs": [
        {
          "internalType": "string",
          "name": "_passwordUnlock",
          "type": "string"
        }
      ],
      "name": "setPasswordUnlock",
      "outputs": [],
      "payable": false,
      "stateMutability": "nonpayable",
      "type": "function"
    },
    {
      "constant": false,
      "inputs": [
        {
          "internalType": "string",
          "name": "_passwordImmediateReveal",
          "type": "string"
        }
      ],
      "name": "setPasswordImmediateReveal",
      "outputs": [],
      "payable": false,
      "stateMutability": "nonpayable",
      "type": "function"
    },
    {
      "constant": false,
      "inputs": [
        {
          "internalType": "uint256",
          "name": "_time",
          "type": "uint256"
        }
      ],
      "name": "setTimeout",
      "outputs": [],
      "payable": false,
      "stateMutability": "nonpayable",
      "type": "function"
    },
    {
      "constant": false,
      "inputs": [
        {
          "internalType": "uint256",
          "name": "_threshold",
          "type": "uint256"
        }
      ],
      "name": "setThreshold",
      "outputs": [],
      "payable": false,
      "stateMutability": "nonpayable",
      "type": "function"
    }
  ],
  "bytecode": "0x60806040526001600660006101000a81548160ff02191690831515021790555060006009556000600c5534801561003557600080fd5b50611142806100456000396000f3fe608060405234801561001057600080fd5b50600436106101005760003560e01c8063785ffb3711610097578063c58a34cc11610066578063c58a34cc14610614578063caa5c2aa14610642578063d1939b5a14610664578063f3403ac11461071f57610100565b8063785ffb37146103d9578063960bfe04146103f757806399983be014610425578063aaf6c7401461055957610100565b80633a2077fa116100d35780633a2077fa146102aa578063510e2f9c146102c857806369b79b131461038357806370dea79a146103bb57610100565b8063066bd405146101055780630e9637f51461012357806317f916d01461016c57806324c8c69814610227575b600080fd5b61010d6107da565b6040518082815260200191505060405180910390f35b61014f6004803603602081101561013957600080fd5b81019080803590602001909291905050506107e0565b604051808381526020018281526020019250505060405180910390f35b6102256004803603602081101561018257600080fd5b810190808035906020019064010000000081111561019f57600080fd5b8201836020820111156101b157600080fd5b803590602001918460018302840111640100000000831117156101d357600080fd5b91908080601f016020809104026020016040519081016040528093929190818152602001838380828437600081840152601f19601f820116905080830192505050505050509192919290505050610811565b005b61022f61082b565b6040518080602001828103825283818151815260200191508051906020019080838360005b8381101561026f578082015181840152602081019050610254565b50505050905090810190601f16801561029c5780820380516001836020036101000a031916815260200191505b509250505060405180910390f35b6102b26108c9565b6040518082815260200191505060405180910390f35b610381600480360360208110156102de57600080fd5b81019080803590602001906401000000008111156102fb57600080fd5b82018360208201111561030d57600080fd5b8035906020019184600183028401116401000000008311171561032f57600080fd5b91908080601f016020809104026020016040519081016040528093929190818152602001838380828437600081840152601f19601f8201169050808301925050505050505091929192905050506108cf565b005b6103b96004803603604081101561039957600080fd5b8101908080359060200190929190803590602001909291905050506108e9565b005b6103c361095e565b6040518082815260200191505060405180910390f35b6103e1610964565b6040518082815260200191505060405180910390f35b6104236004803603602081101561040d57600080fd5b810190808035906020019092919050505061096a565b005b6104de6004803603602081101561043b57600080fd5b810190808035906020019064010000000081111561045857600080fd5b82018360208201111561046a57600080fd5b8035906020019184600183028401116401000000008311171561048c57600080fd5b91908080601f016020809104026020016040519081016040528093929190818152602001838380828437600081840152601f19601f820116905080830192505050505050509192919290505050610974565b6040518080602001828103825283818151815260200191508051906020019080838360005b8381101561051e578082015181840152602081019050610503565b50505050905090810190601f16801561054b5780820380516001836020036101000a031916815260200191505b509250505060405180910390f35b6106126004803603602081101561056f57600080fd5b810190808035906020019064010000000081111561058c57600080fd5b82018360208201111561059e57600080fd5b803590602001918460018302840111640100000000831117156105c057600080fd5b91908080601f016020809104026020016040519081016040528093929190818152602001838380828437600081840152601f19601f820116905080830192505050505050509192919290505050610eb9565b005b6106406004803603602081101561062a57600080fd5b8101908080359060200190929190505050610ed3565b005b61064a610ee8565b604051808215151515815260200191505060405180910390f35b61071d6004803603602081101561067a57600080fd5b810190808035906020019064010000000081111561069757600080fd5b8201836020820111156106a957600080fd5b803590602001918460018302840111640100000000831117156106cb57600080fd5b91908080601f016020809104026020016040519081016040528093929190818152602001838380828437600081840152601f19601f820116905080830192505050505050509192919290505050610f1e565b005b6107d86004803603602081101561073557600080fd5b810190808035906020019064010000000081111561075257600080fd5b82018360208201111561076457600080fd5b8035906020019184600183028401116401000000008311171561078657600080fd5b91908080601f016020809104026020016040519081016040528093929190818152602001838380828437600081840152601f19601f820116905080830192505050505050509192919290505050610f38565b005b600c5481565b600a81815481106107ed57fe5b90600052602060002090600202016000915090508060000154908060010154905082565b8060059080519060200190610827929190610fb9565b5050565b60008054600181600116156101000203166002900480601f0160208091040260200160405190810160405280929190818152602001828054600181600116156101000203166002900480156108c15780601f10610896576101008083540402835291602001916108c1565b820191906000526020600020905b8154815290600101906020018083116108a457829003601f168201915b505050505081565b60015481565b80600390805190602001906108e5929190610fb9565b5050565b6108f1611039565b6040518060400160405280848152602001838152509050600a81908060018154018082558091505090600182039060005260206000209060020201600090919290919091506000820151816000015560208201518160010155505050600a80549050600c81905550505050565b60075481565b600b5481565b80600b8190555050565b6060600260405160200180828054600181600116156101000203166002900480156109d65780601f106109b45761010080835404028352918201916109d6565b820191906000526020600020905b8154815290600101906020018083116109c2575b505091505060405160208183030381529060405280519060200120826040516020018082805190602001908083835b60208310610a285780518252602082019150602081019050602083039250610a05565b6001836020036101000a038019825116818451168082178552505050505050905001915050604051602081830303815290604052805190602001201415610aea57610a71610f52565b60085460405160200180807f53656372657420696e6869626974656420666f72200000000000000000000000815250601501828152602001807f207365636f6e6473206d6f726500000000000000000000000000000000000000815250600d019150506040516020818303038152906040529050610eb4565b60036040516020018082805460018160011615610100020316600290048015610b4a5780601f10610b28576101008083540402835291820191610b4a565b820191906000526020600020905b815481529060010190602001808311610b36575b505091505060405160208183030381529060405280519060200120826040516020018082805190602001908083835b60208310610b9c5780518252602082019150602081019050602083039250610b79565b6001836020036101000a038019825116818451168082178552505050505050905001915050604051602081830303815290604052805190602001201415610c0757610be76000610f66565b6040518060600160405280602d8152602001611079602d91399050610eb4565b60046040516020018082805460018160011615610100020316600290048015610c675780601f10610c45576101008083540402835291820191610c67565b820191906000526020600020905b815481529060010190602001808311610c53575b505091505060405160208183030381529060405280519060200120826040516020018082805190602001908083835b60208310610cb95780518252602082019150602081019050602083039250610c96565b6001836020036101000a038019825116818451168082178552505050505050905001915050604051602081830303815290604052805190602001201415610d6057610d046001610f66565b60085460405160200180806110a660379139603701828152602001807f207365636f6e64732066726f6d206e6f770000000000000000000000000000008152506011019150506040516020818303038152906040529050610eb4565b60056040516020018082805460018160011615610100020316600290048015610dc05780601f10610d9e576101008083540402835291820191610dc0565b820191906000526020600020905b815481529060010190602001808311610dac575b505091505060405160208183030381529060405280519060200120826040516020018082805190602001908083835b60208310610e125780518252602082019150602081019050602083039250610def565b6001836020036101000a038019825116818451168082178552505050505050905001915050604051602081830303815290604052805190602001201415610e9857610e5b610f95565b6040518060400160405280601d81526020017f5468652073656372657420686173206265656e2072657665616c6564210000008152509050610eb4565b6040518060600160405280603181526020016110dd6031913990505b919050565b8060009080519060200190610ecf929190610fb9565b5050565b80600881905550600854420160078190555050565b600060096000815480929190600101919050555060075442118015610f195750600660009054906101000a900460ff165b905090565b8060029080519060200190610f34929190610fb9565b5050565b8060049080519060200190610f4e929190610fb9565b5050565b600854600760008282540192505081905550565b80600660006101000a81548160ff0219169083151502179055508015610f9257610f91600854610ed3565b5b50565b426007819055506001600660006101000a81548160ff021916908315150217905550565b828054600181600116156101000203166002900490600052602060002090601f016020900481019282601f10610ffa57805160ff1916838001178555611028565b82800160010185558215611028579182015b8281111561102757825182559160200191906001019061100c565b5b5090506110359190611053565b5090565b604051806040016040528060008152602001600081525090565b61107591905b80821115611071576000816000905550600101611059565b5090565b9056fe53656372657420726576656c6174696f6e2064697361626c656420666f7220756e646566696e65642074696d6553656372657420726576656c6174696f6e20656e61626c65642e20546865207365637265742077696c6c2062652072657665616c656420556e617574686f72697a656421205468652070617373776f726420696e736572746564206973206e6f742076616c69642ea265627a7a723158207d0fb7b77724b27848dbac141347788b63dbe044209f81d4226b34418febeaff64736f6c63430005100032",
  "source": "// SPDX-License-Identifier: MIT\r\npragma solidity >=0.4.22 <0.9.0;\r\n\r\n/**\r\n@author : Andrei-Stefan Blindu\r\n */\r\n\r\ncontract SmartContract {\r\n    string public fileHash;     // hash to retrieve the encrypted file from IPFS\r\n    uint256 public secretKey;    // key to decrypt the secret file\r\n\r\n    string private passwordInhibit;  // to inhibit revelation for a certain time (timeout)\r\n    string private passwordLock;    // to disable revelation for undefined time\r\n    string private passwordUnlock;  // to enable revelation\r\n    string private passwordImmediateReveal; // to reveal instantly\r\n\r\n    bool private enableRevelation = true;\r\n    uint256 public timeout; \r\n    uint256 private timeSpan;   // time span the secret remains inhibited for   \r\n    int private requestCounter = 0;\r\n\r\n    struct PartialKey {     // define the structure of a partialKey\r\n        uint256 x;\r\n        uint256 y;\r\n    }\r\n\r\n    PartialKey[] public partialKeys;  // dynamic size array that stores the partial keys received by the devices\r\n    uint public THRESHOLD;   // minimum numeber of shares required to reconstruct the secret\r\n    uint public currentSharesNumber = 0;    // current number of partial keys in the smart contract\r\n\r\n\r\n    function setEnableRevelation(bool _flag) private {\r\n        enableRevelation = _flag;\r\n        if (_flag) {\r\n            // if revelation was disabled just setting enableRevelation to true is not enough,\r\n            // we have to update the timeout to a future value as well\r\n            setTimeout(timeSpan);\r\n        }\r\n    }\r\n\r\n    function instantRevelation() private {\r\n        // by setting the timeout to the current timestamp I make it expire\r\n        timeout = block.timestamp;\r\n        enableRevelation = true;\r\n    }\r\n\r\n    function inhibitRevelation() private {\r\n        // we increase the timeout to inhibit revelation for one more time span\r\n        timeout += timeSpan;\r\n    }\r\n\r\n    // FUNCTION THAT DECIDES WHAT ACTION TO EXECUTE ACCORDING TO THE PASSWORD INSERTED\r\n    function action(string memory _password) public returns(string memory) {\r\n        if (keccak256(abi.encodePacked(_password)) == keccak256(abi.encodePacked(passwordInhibit))) {\r\n            inhibitRevelation();\r\n            return string(abi.encodePacked(\"Secret inhibited for \", timeSpan, \" seconds more\"));\r\n        }\r\n        else if (keccak256(abi.encodePacked(_password)) == keccak256(abi.encodePacked(passwordLock))) {\r\n            setEnableRevelation(false);\r\n            return \"Secret revelation disabled for undefined time\";\r\n        }\r\n        else if (keccak256(abi.encodePacked(_password)) == keccak256(abi.encodePacked(passwordUnlock))) {\r\n            setEnableRevelation(true);\r\n            return string(abi.encodePacked(\"Secret revelation enabled. The secret will be revealed \",\r\n                                            timeSpan, \" seconds from now\"));\r\n        }\r\n        else if (keccak256(abi.encodePacked(_password)) == keccak256(abi.encodePacked(passwordImmediateReveal))) {\r\n            instantRevelation();\r\n            return \"The secret has been revealed!\";\r\n        } else {\r\n            return \"Unauthorized! The password inserted is not valid.\";\r\n        }\r\n    }\r\n\r\n    // CHECK IF THE CONDITIONS FOR REVELATION ARE MET \r\n    // This function is called by the devices that monitor the smart contract\r\n    function checkReveal() public returns(bool){\r\n        requestCounter++;   // modify the state of the contract in order to mine another block and update the timestamp\r\n        return ((block.timestamp > timeout) && enableRevelation);\r\n    }\r\n\r\n    \r\n    // FUNCTIONS THAT ALLOW THE SMART CONTRACT TO RECEIVE PARTIAL KEYS FROM THE DEVICES\r\n    // AND USE THEM TO RECONSTRUCT THE SECRET KEY\r\n    function sendPartialKey(uint256 _partialKey_x, uint256 _partialKey_y) public {\r\n        PartialKey memory partialKey = PartialKey(_partialKey_x, _partialKey_y);\r\n        partialKeys.push(partialKey);\r\n        currentSharesNumber = partialKeys.length;\r\n    }\r\n\r\n\r\n    /*function recontructSecret() public {\r\n        if (partialKeys.length >= THRESHOLD) {\r\n            secretKey = lagrangeInterpolation(partialKeys);\r\n        } \r\n        // Reconstructs the secret key only when it has enough shares, otherwise it does nothing\r\n    }\r\n\r\n    // Meglio che il segreto non venga ricostruito sulla blockchain ma da un altro javascript \r\n    // ovvero dall'app di news feed\r\n    function lagrangeInterpolation(PartialKey[] memory _partialKeys) private view returns(uint256) {\r\n        uint256 result = 0; // Initialize result\r\n    \r\n        for (uint i = 0; i < THRESHOLD; i++) {\r\n            // Compute individual terms of the formula\r\n            uint256 term = _partialKeys[i].y;\r\n            for (uint j = 0; j < THRESHOLD; j++)\r\n            {\r\n                if (j != i) {\r\n                    term = term*(_partialKeys[j].x) / (_partialKeys[j].x - _partialKeys[i].x);\r\n                }     \r\n            }\r\n    \r\n            // Add current term to result\r\n            result += term;\r\n        }\r\n\r\n        return result;\r\n    }*/\r\n\r\n\r\n    // SETTERS\r\n    function setFileHash(string memory _fileHash) public {\r\n        fileHash = _fileHash;\r\n    }\r\n    function setPasswordInhibit(string memory _passwordInhibit) public {\r\n        passwordInhibit = _passwordInhibit;\r\n    }\r\n    function setPasswordLock(string memory _passwordLock) public {\r\n        passwordLock = _passwordLock;\r\n    }\r\n    function setPasswordUnlock(string memory _passwordUnlock) public {\r\n        passwordUnlock = _passwordUnlock;\r\n    }\r\n    function setPasswordImmediateReveal(string memory _passwordImmediateReveal) public {\r\n        passwordImmediateReveal = _passwordImmediateReveal;\r\n    }\r\n    function setTimeout(uint256 _time) public {\r\n        timeSpan = _time;\r\n        timeout = block.timestamp + timeSpan;\r\n    }\r\n    function setThreshold(uint _threshold) public{\r\n        THRESHOLD = _threshold;\r\n    }\r\n}",
  "sourcePath": "D:\\Desktop\\Tesi\\decentralized_secret_managing_blockchain\\contracts\\SmartContract.sol",
  "compiler": {
    "name": "solc",
    "version": "0.5.16+commit.9c3226ce.Emscripten.clang"
  },
  "schemaVersion": "3.4.3",
  "updatedAt": "2021-10-24T12:55:59.926Z",
  "networkType": "ethereum",
  "devdoc": {
    "author": ": Andrei-Stefan Blindu",
    "methods": {}
  },
  "userdoc": {
    "methods": {}
  }
}