{
  "contractName": "SmartContract",
  "abi": [
    {
      "constant": true,
      "inputs": [],
      "name": "THRESHOLD",
      "outputs": [
        {
          "internalType": "uint256",
          "name": "",
          "type": "uint256"
        }
      ],
      "payable": false,
      "stateMutability": "view",
      "type": "function"
    },
    {
      "constant": true,
      "inputs": [],
      "name": "currentSharesNumber",
      "outputs": [
        {
          "internalType": "uint256",
          "name": "",
          "type": "uint256"
        }
      ],
      "payable": false,
      "stateMutability": "view",
      "type": "function"
    },
    {
      "constant": true,
      "inputs": [],
      "name": "fileHash",
      "outputs": [
        {
          "internalType": "string",
          "name": "",
          "type": "string"
        }
      ],
      "payable": false,
      "stateMutability": "view",
      "type": "function"
    },
    {
      "constant": true,
      "inputs": [
        {
          "internalType": "uint256",
          "name": "",
          "type": "uint256"
        }
      ],
      "name": "partialKeys",
      "outputs": [
        {
          "internalType": "uint256",
          "name": "x",
          "type": "uint256"
        },
        {
          "internalType": "uint256",
          "name": "y",
          "type": "uint256"
        }
      ],
      "payable": false,
      "stateMutability": "view",
      "type": "function"
    },
    {
      "constant": true,
      "inputs": [],
      "name": "publicKey",
      "outputs": [
        {
          "internalType": "string",
          "name": "",
          "type": "string"
        }
      ],
      "payable": false,
      "stateMutability": "view",
      "type": "function"
    },
    {
      "constant": true,
      "inputs": [],
      "name": "timeout",
      "outputs": [
        {
          "internalType": "uint256",
          "name": "",
          "type": "uint256"
        }
      ],
      "payable": false,
      "stateMutability": "view",
      "type": "function"
    },
    {
      "constant": false,
      "inputs": [
        {
          "internalType": "string",
          "name": "_password",
          "type": "string"
        }
      ],
      "name": "action",
      "outputs": [
        {
          "internalType": "string",
          "name": "",
          "type": "string"
        }
      ],
      "payable": false,
      "stateMutability": "nonpayable",
      "type": "function"
    },
    {
      "constant": false,
      "inputs": [],
      "name": "checkReveal",
      "outputs": [
        {
          "internalType": "bool",
          "name": "",
          "type": "bool"
        }
      ],
      "payable": false,
      "stateMutability": "nonpayable",
      "type": "function"
    },
    {
      "constant": false,
      "inputs": [
        {
          "internalType": "uint256",
          "name": "_partialKey_x",
          "type": "uint256"
        },
        {
          "internalType": "uint256",
          "name": "_partialKey_y",
          "type": "uint256"
        }
      ],
      "name": "sendPartialKey",
      "outputs": [],
      "payable": false,
      "stateMutability": "nonpayable",
      "type": "function"
    },
    {
      "constant": false,
      "inputs": [
        {
          "internalType": "string",
          "name": "_fileHash",
          "type": "string"
        }
      ],
      "name": "setFileHash",
      "outputs": [],
      "payable": false,
      "stateMutability": "nonpayable",
      "type": "function"
    },
    {
      "constant": false,
      "inputs": [
        {
          "internalType": "string",
          "name": "_passwordInhibit",
          "type": "string"
        }
      ],
      "name": "setPasswordInhibit",
      "outputs": [],
      "payable": false,
      "stateMutability": "nonpayable",
      "type": "function"
    },
    {
      "constant": false,
      "inputs": [
        {
          "internalType": "string",
          "name": "_passwordLock",
          "type": "string"
        }
      ],
      "name": "setPasswordLock",
      "outputs": [],
      "payable": false,
      "stateMutability": "nonpayable",
      "type": "function"
    },
    {
      "constant": false,
      "inputs": [
        {
          "internalType": "string",
          "name": "_passwordImmediateReveal",
          "type": "string"
        }
      ],
      "name": "setPasswordImmediateReveal",
      "outputs": [],
      "payable": false,
      "stateMutability": "nonpayable",
      "type": "function"
    },
    {
      "constant": false,
      "inputs": [
        {
          "internalType": "uint256",
          "name": "_time",
          "type": "uint256"
        }
      ],
      "name": "setTimeout",
      "outputs": [],
      "payable": false,
      "stateMutability": "nonpayable",
      "type": "function"
    },
    {
      "constant": false,
      "inputs": [
        {
          "internalType": "uint256",
          "name": "_threshold",
          "type": "uint256"
        }
      ],
      "name": "setThreshold",
      "outputs": [],
      "payable": false,
      "stateMutability": "nonpayable",
      "type": "function"
    },
    {
      "constant": false,
      "inputs": [
        {
          "internalType": "string",
          "name": "_publicKey",
          "type": "string"
        }
      ],
      "name": "setPublicKey",
      "outputs": [],
      "payable": false,
      "stateMutability": "nonpayable",
      "type": "function"
    }
  ],
  "bytecode": "0x60806040526001600460006101000a81548160ff02191690831515021790555060006007556000600a5534801561003557600080fd5b5061109d806100456000396000f3fe608060405234801561001057600080fd5b50600436106101005760003560e01c806370dea79a11610097578063aaf6c74011610066578063aaf6c74014610679578063c58a34cc14610734578063caa5c2aa14610762578063d1939b5a1461078457610100565b806370dea79a146104db578063785ffb37146104f9578063960bfe041461051757806399983be01461054557610100565b8063510e2f9c116100d3578063510e2f9c146102aa57806363ffab311461036557806369b79b13146103e85780636f6fc0771461042057610100565b8063066bd405146101055780630e9637f51461012357806317f916d01461016c57806324c8c69814610227575b600080fd5b61010d61083f565b6040518082815260200191505060405180910390f35b61014f6004803603602081101561013957600080fd5b8101908080359060200190929190505050610845565b604051808381526020018281526020019250505060405180910390f35b6102256004803603602081101561018257600080fd5b810190808035906020019064010000000081111561019f57600080fd5b8201836020820111156101b157600080fd5b803590602001918460018302840111640100000000831117156101d357600080fd5b91908080601f016020809104026020016040519081016040528093929190818152602001838380828437600081840152601f19601f820116905080830192505050505050509192919290505050610876565b005b61022f610890565b6040518080602001828103825283818151815260200191508051906020019080838360005b8381101561026f578082015181840152602081019050610254565b50505050905090810190601f16801561029c5780820380516001836020036101000a031916815260200191505b509250505060405180910390f35b610363600480360360208110156102c057600080fd5b81019080803590602001906401000000008111156102dd57600080fd5b8201836020820111156102ef57600080fd5b8035906020019184600183028401116401000000008311171561031157600080fd5b91908080601f016020809104026020016040519081016040528093929190818152602001838380828437600081840152601f19601f82011690508083019250505050505050919291929050505061092e565b005b61036d610948565b6040518080602001828103825283818151815260200191508051906020019080838360005b838110156103ad578082015181840152602081019050610392565b50505050905090810190601f1680156103da5780820380516001836020036101000a031916815260200191505b509250505060405180910390f35b61041e600480360360408110156103fe57600080fd5b8101908080359060200190929190803590602001909291905050506109e6565b005b6104d96004803603602081101561043657600080fd5b810190808035906020019064010000000081111561045357600080fd5b82018360208201111561046557600080fd5b8035906020019184600183028401116401000000008311171561048757600080fd5b91908080601f016020809104026020016040519081016040528093929190818152602001838380828437600081840152601f19601f820116905080830192505050505050509192919290505050610a5b565b005b6104e3610a75565b6040518082815260200191505060405180910390f35b610501610a7b565b6040518082815260200191505060405180910390f35b6105436004803603602081101561052d57600080fd5b8101908080359060200190929190505050610a81565b005b6105fe6004803603602081101561055b57600080fd5b810190808035906020019064010000000081111561057857600080fd5b82018360208201111561058a57600080fd5b803590602001918460018302840111640100000000831117156105ac57600080fd5b91908080601f016020809104026020016040519081016040528093929190818152602001838380828437600081840152601f19601f820116905080830192505050505050509192919290505050610a8b565b6040518080602001828103825283818151815260200191508051906020019080838360005b8381101561063e578082015181840152602081019050610623565b50505050905090810190601f16801561066b5780820380516001836020036101000a031916815260200191505b509250505060405180910390f35b6107326004803603602081101561068f57600080fd5b81019080803590602001906401000000008111156106ac57600080fd5b8201836020820111156106be57600080fd5b803590602001918460018302840111640100000000831117156106e057600080fd5b91908080601f016020809104026020016040519081016040528093929190818152602001838380828437600081840152601f19601f820116905080830192505050505050509192919290505050610e77565b005b6107606004803603602081101561074a57600080fd5b8101908080359060200190929190505050610e91565b005b61076a610ea6565b604051808215151515815260200191505060405180910390f35b61083d6004803603602081101561079a57600080fd5b81019080803590602001906401000000008111156107b757600080fd5b8201836020820111156107c957600080fd5b803590602001918460018302840111640100000000831117156107eb57600080fd5b91908080601f016020809104026020016040519081016040528093929190818152602001838380828437600081840152601f19601f820116905080830192505050505050509192919290505050610edc565b005b600a5481565b6008818154811061085257fe5b90600052602060002090600202016000915090508060000154908060010154905082565b806003908051906020019061088c929190610f4b565b5050565b60008054600181600116156101000203166002900480601f0160208091040260200160405190810160405280929190818152602001828054600181600116156101000203166002900480156109265780601f106108fb57610100808354040283529160200191610926565b820191906000526020600020905b81548152906001019060200180831161090957829003601f168201915b505050505081565b8060029080519060200190610944929190610f4b565b5050565b600b8054600181600116156101000203166002900480601f0160208091040260200160405190810160405280929190818152602001828054600181600116156101000203166002900480156109de5780601f106109b3576101008083540402835291602001916109de565b820191906000526020600020905b8154815290600101906020018083116109c157829003601f168201915b505050505081565b6109ee610fcb565b6040518060400160405280848152602001838152509050600881908060018154018082558091505090600182039060005260206000209060020201600090919290919091506000820151816000015560208201518160010155505050600880549050600a81905550505050565b80600b9080519060200190610a71929190610f4b565b5050565b60055481565b60095481565b8060098190555050565b606060016040516020018082805460018160011615610100020316600290048015610aed5780601f10610acb576101008083540402835291820191610aed565b820191906000526020600020905b815481529060010190602001808311610ad9575b505091505060405160208183030381529060405280519060200120826040516020018082805190602001908083835b60208310610b3f5780518252602082019150602081019050602083039250610b1c565b6001836020036101000a038019825116818451168082178552505050505050905001915050604051602081830303815290604052805190602001201415610c0157610b88610ef6565b60065460405160200180807f53656372657420696e6869626974656420666f72200000000000000000000000815250601501828152602001807f207365636f6e6473206d6f726500000000000000000000000000000000000000815250600d019150506040516020818303038152906040529050610e72565b60026040516020018082805460018160011615610100020316600290048015610c615780601f10610c3f576101008083540402835291820191610c61565b820191906000526020600020905b815481529060010190602001808311610c4d575b505091505060405160208183030381529060405280519060200120826040516020018082805190602001908083835b60208310610cb35780518252602082019150602081019050602083039250610c90565b6001836020036101000a038019825116818451168082178552505050505050905001915050604051602081830303815290604052805190602001201415610d1e57610cfe6000610f0a565b6040518060600160405280602d815260200161100b602d91399050610e72565b60036040516020018082805460018160011615610100020316600290048015610d7e5780601f10610d5c576101008083540402835291820191610d7e565b820191906000526020600020905b815481529060010190602001808311610d6a575b505091505060405160208183030381529060405280519060200120826040516020018082805190602001908083835b60208310610dd05780518252602082019150602081019050602083039250610dad565b6001836020036101000a038019825116818451168082178552505050505050905001915050604051602081830303815290604052805190602001201415610e5657610e19610f27565b6040518060400160405280601d81526020017f5468652073656372657420686173206265656e2072657665616c6564210000008152509050610e72565b6040518060600160405280603181526020016110386031913990505b919050565b8060009080519060200190610e8d929190610f4b565b5050565b80600681905550600654420160058190555050565b600060076000815480929190600101919050555060055442118015610ed75750600460009054906101000a900460ff165b905090565b8060019080519060200190610ef2929190610f4b565b5050565b600654600560008282540192505081905550565b80600460006101000a81548160ff02191690831515021790555050565b426005819055506001600460006101000a81548160ff021916908315150217905550565b828054600181600116156101000203166002900490600052602060002090601f016020900481019282601f10610f8c57805160ff1916838001178555610fba565b82800160010185558215610fba579182015b82811115610fb9578251825591602001919060010190610f9e565b5b509050610fc79190610fe5565b5090565b604051806040016040528060008152602001600081525090565b61100791905b80821115611003576000816000905550600101610feb565b5090565b9056fe53656372657420726576656c6174696f6e2064697361626c656420666f7220756e646566696e65642074696d65556e617574686f72697a656421205468652070617373776f726420696e736572746564206973206e6f742076616c69642ea265627a7a723158203e40473fea7c19de7bbcbaf632d93c449b210250daa70b63a2c915edaa3d3f3e64736f6c63430005100032",
  "source": "// SPDX-License-Identifier: MIT\r\npragma solidity >=0.4.22 <0.9.0;\r\n\r\n/**\r\n@author : Andrei-Stefan Blindu\r\n */\r\n\r\ncontract SmartContract {\r\n    string public fileHash;     // hash to retrieve the encrypted file from IPFS\r\n    //uint256 public secretKey; (not needed)    // key to decrypt the secret file\r\n\r\n    string private passwordInhibit;  // to inhibit revelation for a certain time (timeout)\r\n    string private passwordLock;    // to disable revelation for undefined time\r\n    //string private passwordUnlock;  // to enable revelation\r\n    string private passwordImmediateReveal; // to reveal instantly\r\n\r\n    bool private enableRevelation = true;\r\n    uint256 public timeout; \r\n    uint256 private timeSpan;   // time span the secret remains inhibited for   \r\n    int private requestCounter = 0;\r\n\r\n    struct PartialKey {     // define the structure of a partialKey\r\n        uint256 x;\r\n        uint256 y;\r\n    }\r\n\r\n    PartialKey[] public partialKeys;  // dynamic size array that stores the partial keys received by the devices\r\n    uint public THRESHOLD;   // minimum numeber of shares required to reconstruct the secret\r\n    uint public currentSharesNumber = 0;    // current number of partial keys in the smart contract\r\n    string public publicKey;    // public key that decrypts the shares encrypted by horcruxes with their private key\r\n\r\n\r\n    function setEnableRevelation(bool _flag) private {\r\n        enableRevelation = _flag;\r\n        /*if (_flag) {\r\n            // if revelation was disabled just setting enableRevelation to true is not enough,\r\n            // we have to update the timeout to a future value as well\r\n            setTimeout(timeSpan);\r\n        }*/\r\n    }\r\n\r\n    function instantRevelation() private {\r\n        // by setting the timeout to the current timestamp I make it expire\r\n        timeout = block.timestamp;\r\n        enableRevelation = true;\r\n    }\r\n\r\n    function inhibitRevelation() private {\r\n        // we increase the timeout to inhibit revelation for one more time span\r\n        timeout += timeSpan;\r\n    }\r\n\r\n    // FUNCTION THAT DECIDES WHAT ACTION TO EXECUTE ACCORDING TO THE PASSWORD INSERTED\r\n    function action(string memory _password) public returns(string memory) {\r\n        if (keccak256(abi.encodePacked(_password)) == keccak256(abi.encodePacked(passwordInhibit))) {\r\n            inhibitRevelation();\r\n            return string(abi.encodePacked(\"Secret inhibited for \", timeSpan, \" seconds more\"));\r\n        }\r\n        else if (keccak256(abi.encodePacked(_password)) == keccak256(abi.encodePacked(passwordLock))) {\r\n            setEnableRevelation(false);\r\n            return \"Secret revelation disabled for undefined time\";\r\n        }\r\n        /*else if (keccak256(abi.encodePacked(_password)) == keccak256(abi.encodePacked(passwordUnlock))) {\r\n            setEnableRevelation(true);\r\n            return string(abi.encodePacked(\"Secret revelation enabled. The secret will be revealed \",\r\n                                            timeSpan, \" seconds from now\"));\r\n        }*/\r\n        else if (keccak256(abi.encodePacked(_password)) == keccak256(abi.encodePacked(passwordImmediateReveal))) {\r\n            instantRevelation();\r\n            return \"The secret has been revealed!\";\r\n        } else {\r\n            return \"Unauthorized! The password inserted is not valid.\";\r\n        }\r\n    }\r\n\r\n    // CHECK IF THE CONDITIONS FOR REVELATION ARE MET \r\n    // This function is called by the devices that monitor the smart contract\r\n    function checkReveal() public returns(bool){\r\n        requestCounter++;   // modify the state of the contract in order to mine another block and update the timestamp\r\n        return ((block.timestamp > timeout) && enableRevelation);\r\n    }\r\n\r\n    \r\n    // FUNCTIONS THAT ALLOW THE SMART CONTRACT TO RECEIVE PARTIAL KEYS FROM THE DEVICES\r\n    // AND USE THEM TO RECONSTRUCT THE SECRET KEY\r\n    function sendPartialKey(uint256 _partialKey_x, uint256 _partialKey_y) public {\r\n        PartialKey memory partialKey = PartialKey(_partialKey_x, _partialKey_y);\r\n        partialKeys.push(partialKey);\r\n        currentSharesNumber = partialKeys.length;\r\n    }\r\n    \r\n\r\n    // SETTERS\r\n    function setFileHash(string memory _fileHash) public {\r\n        fileHash = _fileHash;\r\n    }\r\n    function setPasswordInhibit(string memory _passwordInhibit) public {\r\n        passwordInhibit = _passwordInhibit;\r\n    }\r\n    function setPasswordLock(string memory _passwordLock) public {\r\n        passwordLock = _passwordLock;\r\n    }\r\n    /*function setPasswordUnlock(string memory _passwordUnlock) public {\r\n        passwordUnlock = _passwordUnlock;\r\n    }*/\r\n    function setPasswordImmediateReveal(string memory _passwordImmediateReveal) public {\r\n        passwordImmediateReveal = _passwordImmediateReveal;\r\n    }\r\n    function setTimeout(uint256 _time) public {\r\n        timeSpan = _time;\r\n        timeout = block.timestamp + timeSpan;\r\n    }\r\n    function setThreshold(uint _threshold) public{\r\n        THRESHOLD = _threshold;\r\n    }\r\n    function setPublicKey(string memory _publicKey) public {\r\n        publicKey = _publicKey;\r\n    }\r\n}",
  "sourcePath": "D:\\Desktop\\Tesi\\decentralized_secret_managing_blockchain\\contracts\\SmartContract.sol",
  "compiler": {
    "name": "solc",
    "version": "0.5.16+commit.9c3226ce.Emscripten.clang"
  },
  "schemaVersion": "3.4.3",
  "updatedAt": "2021-10-29T08:30:52.438Z",
  "networkType": "ethereum",
  "devdoc": {
    "author": ": Andrei-Stefan Blindu",
    "methods": {}
  },
  "userdoc": {
    "methods": {}
  }
}