{
  "contractName": "SmartContract",
  "abi": [
    {
      "constant": true,
      "inputs": [],
      "name": "THRESHOLD",
      "outputs": [
        {
          "internalType": "uint256",
          "name": "",
          "type": "uint256"
        }
      ],
      "payable": false,
      "stateMutability": "view",
      "type": "function"
    },
    {
      "constant": true,
      "inputs": [],
      "name": "currentSharesNumber",
      "outputs": [
        {
          "internalType": "uint256",
          "name": "",
          "type": "uint256"
        }
      ],
      "payable": false,
      "stateMutability": "view",
      "type": "function"
    },
    {
      "constant": true,
      "inputs": [],
      "name": "fileHash",
      "outputs": [
        {
          "internalType": "string",
          "name": "",
          "type": "string"
        }
      ],
      "payable": false,
      "stateMutability": "view",
      "type": "function"
    },
    {
      "constant": true,
      "inputs": [
        {
          "internalType": "uint256",
          "name": "",
          "type": "uint256"
        }
      ],
      "name": "partialKeys",
      "outputs": [
        {
          "internalType": "string",
          "name": "x",
          "type": "string"
        },
        {
          "internalType": "string",
          "name": "y",
          "type": "string"
        }
      ],
      "payable": false,
      "stateMutability": "view",
      "type": "function"
    },
    {
      "constant": true,
      "inputs": [
        {
          "internalType": "uint256",
          "name": "",
          "type": "uint256"
        }
      ],
      "name": "publicKey",
      "outputs": [
        {
          "internalType": "string",
          "name": "",
          "type": "string"
        }
      ],
      "payable": false,
      "stateMutability": "view",
      "type": "function"
    },
    {
      "constant": true,
      "inputs": [],
      "name": "timeout",
      "outputs": [
        {
          "internalType": "uint256",
          "name": "",
          "type": "uint256"
        }
      ],
      "payable": false,
      "stateMutability": "view",
      "type": "function"
    },
    {
      "constant": false,
      "inputs": [
        {
          "internalType": "string",
          "name": "_password",
          "type": "string"
        }
      ],
      "name": "action",
      "outputs": [
        {
          "internalType": "string",
          "name": "",
          "type": "string"
        }
      ],
      "payable": false,
      "stateMutability": "nonpayable",
      "type": "function"
    },
    {
      "constant": true,
      "inputs": [],
      "name": "checkReveal",
      "outputs": [
        {
          "internalType": "bool",
          "name": "",
          "type": "bool"
        }
      ],
      "payable": false,
      "stateMutability": "view",
      "type": "function"
    },
    {
      "constant": false,
      "inputs": [
        {
          "internalType": "string",
          "name": "_partialKey_x",
          "type": "string"
        },
        {
          "internalType": "string",
          "name": "_partialKey_y",
          "type": "string"
        }
      ],
      "name": "sendPartialKey",
      "outputs": [],
      "payable": false,
      "stateMutability": "nonpayable",
      "type": "function"
    },
    {
      "constant": true,
      "inputs": [],
      "name": "getPublicKeySubstringsNumber",
      "outputs": [
        {
          "internalType": "uint256",
          "name": "",
          "type": "uint256"
        }
      ],
      "payable": false,
      "stateMutability": "view",
      "type": "function"
    },
    {
      "constant": false,
      "inputs": [],
      "name": "clearPublicKey",
      "outputs": [],
      "payable": false,
      "stateMutability": "nonpayable",
      "type": "function"
    },
    {
      "constant": false,
      "inputs": [
        {
          "internalType": "string",
          "name": "_fileHash",
          "type": "string"
        }
      ],
      "name": "setFileHash",
      "outputs": [],
      "payable": false,
      "stateMutability": "nonpayable",
      "type": "function"
    },
    {
      "constant": false,
      "inputs": [
        {
          "internalType": "string",
          "name": "_passwordInhibit",
          "type": "string"
        }
      ],
      "name": "setPasswordInhibit",
      "outputs": [],
      "payable": false,
      "stateMutability": "nonpayable",
      "type": "function"
    },
    {
      "constant": false,
      "inputs": [
        {
          "internalType": "string",
          "name": "_passwordLock",
          "type": "string"
        }
      ],
      "name": "setPasswordLock",
      "outputs": [],
      "payable": false,
      "stateMutability": "nonpayable",
      "type": "function"
    },
    {
      "constant": false,
      "inputs": [
        {
          "internalType": "string",
          "name": "_passwordImmediateReveal",
          "type": "string"
        }
      ],
      "name": "setPasswordImmediateReveal",
      "outputs": [],
      "payable": false,
      "stateMutability": "nonpayable",
      "type": "function"
    },
    {
      "constant": false,
      "inputs": [
        {
          "internalType": "uint256",
          "name": "_time",
          "type": "uint256"
        }
      ],
      "name": "setTimeout",
      "outputs": [],
      "payable": false,
      "stateMutability": "nonpayable",
      "type": "function"
    },
    {
      "constant": false,
      "inputs": [
        {
          "internalType": "uint256",
          "name": "_threshold",
          "type": "uint256"
        }
      ],
      "name": "setThreshold",
      "outputs": [],
      "payable": false,
      "stateMutability": "nonpayable",
      "type": "function"
    },
    {
      "constant": false,
      "inputs": [
        {
          "internalType": "string",
          "name": "_publicKey",
          "type": "string"
        }
      ],
      "name": "setPublicKey",
      "outputs": [],
      "payable": false,
      "stateMutability": "nonpayable",
      "type": "function"
    }
  ],
  "bytecode": "0x60806040526001600460006101000a81548160ff02191690831515021790555060006007556000600a5534801561003557600080fd5b5061159c806100456000396000f3fe608060405234801561001057600080fd5b50600436106101165760003560e01c80638940aebe116100a2578063aaf6c74011610071578063aaf6c740146108b5578063c58a34cc14610970578063caa5c2aa1461099e578063d08b3aca146109c0578063d1939b5a146109ca57610116565b80638940aebe1461055a578063960bfe041461060157806399983be01461062f578063a6585b231461076357610116565b8063510e2f9c116100e9578063510e2f9c1461038a5780635632ca37146104455780636f6fc0771461046357806370dea79a1461051e578063785ffb371461053c57610116565b8063066bd4051461011b5780630e9637f51461013957806317f916d01461024c57806324c8c69814610307575b600080fd5b610123610a85565b6040518082815260200191505060405180910390f35b6101656004803603602081101561014f57600080fd5b8101908080359060200190929190505050610a8b565b604051808060200180602001838103835285818151815260200191508051906020019080838360005b838110156101a957808201518184015260208101905061018e565b50505050905090810190601f1680156101d65780820380516001836020036101000a031916815260200191505b50838103825284818151815260200191508051906020019080838360005b8381101561020f5780820151818401526020810190506101f4565b50505050905090810190601f16801561023c5780820380516001836020036101000a031916815260200191505b5094505050505060405180910390f35b6103056004803603602081101561026257600080fd5b810190808035906020019064010000000081111561027f57600080fd5b82018360208201111561029157600080fd5b803590602001918460018302840111640100000000831117156102b357600080fd5b91908080601f016020809104026020016040519081016040528093929190818152602001838380828437600081840152601f19601f820116905080830192505050505050509192919290505050610bec565b005b61030f610c06565b6040518080602001828103825283818151815260200191508051906020019080838360005b8381101561034f578082015181840152602081019050610334565b50505050905090810190601f16801561037c5780820380516001836020036101000a031916815260200191505b509250505060405180910390f35b610443600480360360208110156103a057600080fd5b81019080803590602001906401000000008111156103bd57600080fd5b8201836020820111156103cf57600080fd5b803590602001918460018302840111640100000000831117156103f157600080fd5b91908080601f016020809104026020016040519081016040528093929190818152602001838380828437600081840152601f19601f820116905080830192505050505050509192919290505050610ca4565b005b61044d610cbe565b6040518082815260200191505060405180910390f35b61051c6004803603602081101561047957600080fd5b810190808035906020019064010000000081111561049657600080fd5b8201836020820111156104a857600080fd5b803590602001918460018302840111640100000000831117156104ca57600080fd5b91908080601f016020809104026020016040519081016040528093929190818152602001838380828437600081840152601f19601f820116905080830192505050505050509192919290505050610ccb565b005b610526610d0d565b6040518082815260200191505060405180910390f35b610544610d13565b6040518082815260200191505060405180910390f35b6105866004803603602081101561057057600080fd5b8101908080359060200190929190505050610d19565b6040518080602001828103825283818151815260200191508051906020019080838360005b838110156105c65780820151818401526020810190506105ab565b50505050905090810190601f1680156105f35780820380516001836020036101000a031916815260200191505b509250505060405180910390f35b61062d6004803603602081101561061757600080fd5b8101908080359060200190929190505050610dd2565b005b6106e86004803603602081101561064557600080fd5b810190808035906020019064010000000081111561066257600080fd5b82018360208201111561067457600080fd5b8035906020019184600183028401116401000000008311171561069657600080fd5b91908080601f016020809104026020016040519081016040528093929190818152602001838380828437600081840152601f19601f820116905080830192505050505050509192919290505050610ddc565b6040518080602001828103825283818151815260200191508051906020019080838360005b8381101561072857808201518184015260208101905061070d565b50505050905090810190601f1680156107555780820380516001836020036101000a031916815260200191505b509250505060405180910390f35b6108b36004803603604081101561077957600080fd5b810190808035906020019064010000000081111561079657600080fd5b8201836020820111156107a857600080fd5b803590602001918460018302840111640100000000831117156107ca57600080fd5b91908080601f016020809104026020016040519081016040528093929190818152602001838380828437600081840152601f19601f8201169050808301925050505050505091929192908035906020019064010000000081111561082d57600080fd5b82018360208201111561083f57600080fd5b8035906020019184600183028401116401000000008311171561086157600080fd5b91908080601f016020809104026020016040519081016040528093929190818152602001838380828437600081840152601f19601f8201169050808301925050505050505091929192905050506111c8565b005b61096e600480360360208110156108cb57600080fd5b81019080803590602001906401000000008111156108e857600080fd5b8201836020820111156108fa57600080fd5b8035906020019184600183028401116401000000008311171561091c57600080fd5b91908080601f016020809104026020016040519081016040528093929190818152602001838380828437600081840152601f19601f820116905080830192505050505050509192919290505050611263565b005b61099c6004803603602081101561098657600080fd5b810190808035906020019092919050505061127d565b005b6109a6611292565b604051808215151515815260200191505060405180910390f35b6109c86112b6565b005b610a83600480360360208110156109e057600080fd5b81019080803590602001906401000000008111156109fd57600080fd5b820183602082011115610a0f57600080fd5b80359060200191846001830284011164010000000083111715610a3157600080fd5b91908080601f016020809104026020016040519081016040528093929190818152602001838380828437600081840152601f19601f8201169050808301925050505050505091929192905050506112c6565b005b600a5481565b60088181548110610a9857fe5b9060005260206000209060020201600091509050806000018054600181600116156101000203166002900480601f016020809104026020016040519081016040528092919081815260200182805460018160011615610100020316600290048015610b445780601f10610b1957610100808354040283529160200191610b44565b820191906000526020600020905b815481529060010190602001808311610b2757829003601f168201915b505050505090806001018054600181600116156101000203166002900480601f016020809104026020016040519081016040528092919081815260200182805460018160011615610100020316600290048015610be25780601f10610bb757610100808354040283529160200191610be2565b820191906000526020600020905b815481529060010190602001808311610bc557829003601f168201915b5050505050905082565b8060039080519060200190610c02929190611335565b5050565b60008054600181600116156101000203166002900480601f016020809104026020016040519081016040528092919081815260200182805460018160011615610100020316600290048015610c9c5780601f10610c7157610100808354040283529160200191610c9c565b820191906000526020600020905b815481529060010190602001808311610c7f57829003601f168201915b505050505081565b8060029080519060200190610cba929190611335565b5050565b6000600b80549050905090565b600b819080600181540180825580915050906001820390600052602060002001600090919290919091509080519060200190610d08929190611335565b505050565b60055481565b60095481565b600b8181548110610d2657fe5b906000526020600020016000915090508054600181600116156101000203166002900480601f016020809104026020016040519081016040528092919081815260200182805460018160011615610100020316600290048015610dca5780601f10610d9f57610100808354040283529160200191610dca565b820191906000526020600020905b815481529060010190602001808311610dad57829003601f168201915b505050505081565b8060098190555050565b606060016040516020018082805460018160011615610100020316600290048015610e3e5780601f10610e1c576101008083540402835291820191610e3e565b820191906000526020600020905b815481529060010190602001808311610e2a575b505091505060405160208183030381529060405280519060200120826040516020018082805190602001908083835b60208310610e905780518252602082019150602081019050602083039250610e6d565b6001836020036101000a038019825116818451168082178552505050505050905001915050604051602081830303815290604052805190602001201415610f5257610ed96112e0565b60065460405160200180807f53656372657420696e6869626974656420666f72200000000000000000000000815250601501828152602001807f207365636f6e6473206d6f726500000000000000000000000000000000000000815250600d0191505060405160208183030381529060405290506111c3565b60026040516020018082805460018160011615610100020316600290048015610fb25780601f10610f90576101008083540402835291820191610fb2565b820191906000526020600020905b815481529060010190602001808311610f9e575b505091505060405160208183030381529060405280519060200120826040516020018082805190602001908083835b602083106110045780518252602082019150602081019050602083039250610fe1565b6001836020036101000a03801982511681845116808217855250505050505090500191505060405160208183030381529060405280519060200120141561106f5761104f60006112f4565b6040518060600160405280602d815260200161150a602d913990506111c3565b600360405160200180828054600181600116156101000203166002900480156110cf5780601f106110ad5761010080835404028352918201916110cf565b820191906000526020600020905b8154815290600101906020018083116110bb575b505091505060405160208183030381529060405280519060200120826040516020018082805190602001908083835b6020831061112157805182526020820191506020810190506020830392506110fe565b6001836020036101000a0380198251168184511680821785525050505050509050019150506040516020818303038152906040528051906020012014156111a75761116a611311565b6040518060400160405280601d81526020017f5468652073656372657420686173206265656e2072657665616c65642100000081525090506111c3565b6040518060600160405280603181526020016115376031913990505b919050565b6111d06113b5565b60405180604001604052808481526020018381525090506008819080600181540180825580915050906001820390600052602060002090600202016000909192909190915060008201518160000190805190602001906112319291906113cf565b50602082015181600101908051906020019061124e9291906113cf565b50505050600880549050600a81905550505050565b8060009080519060200190611279929190611335565b5050565b80600681905550600654420160058190555050565b6000600554421180156112b15750600460009054906101000a900460ff165b905090565b600b60006112c4919061144f565b565b80600190805190602001906112dc929190611335565b5050565b600654600560008282540192505081905550565b80600460006101000a81548160ff02191690831515021790555050565b426005819055506001600460006101000a81548160ff021916908315150217905550565b828054600181600116156101000203166002900490600052602060002090601f016020900481019282601f1061137657805160ff19168380011785556113a4565b828001600101855582156113a4579182015b828111156113a3578251825591602001919060010190611388565b5b5090506113b19190611470565b5090565b604051806040016040528060608152602001606081525090565b828054600181600116156101000203166002900490600052602060002090601f016020900481019282601f1061141057805160ff191683800117855561143e565b8280016001018555821561143e579182015b8281111561143d578251825591602001919060010190611422565b5b50905061144b9190611470565b5090565b508054600082559060005260206000209081019061146d9190611495565b50565b61149291905b8082111561148e576000816000905550600101611476565b5090565b90565b6114be91905b808211156114ba57600081816114b191906114c1565b5060010161149b565b5090565b90565b50805460018160011615610100020316600290046000825580601f106114e75750611506565b601f0160209004906000526020600020908101906115059190611470565b5b5056fe53656372657420726576656c6174696f6e2064697361626c656420666f7220756e646566696e65642074696d65556e617574686f72697a656421205468652070617373776f726420696e736572746564206973206e6f742076616c69642ea265627a7a723158205bf364eab5d4ff5739de873b01d7fa9786019f76b5ef07272c80cbf4796a9a4264736f6c63430005100032",
  "source": "// SPDX-License-Identifier: MIT\r\npragma solidity >=0.4.22 <0.9.0;\r\n\r\n/**\r\n@author : Andrei-Stefan Blindu\r\n */\r\n\r\ncontract SmartContract {\r\n    string public fileHash;     // hash to retrieve the encrypted file from IPFS\r\n    //uint256 public secretKey; (not needed)    // key to decrypt the secret file\r\n\r\n    string private passwordInhibit;  // to inhibit revelation for a certain time (timeout)\r\n    string private passwordLock;    // to disable revelation for undefined time\r\n    //string private passwordUnlock;  // to enable revelation\r\n    string private passwordImmediateReveal; // to reveal instantly\r\n\r\n    bool private enableRevelation = true;\r\n    uint256 public timeout; \r\n    uint256 private timeSpan;   // time span the secret remains inhibited for   \r\n    int private requestCounter = 0;\r\n\r\n    struct PartialKey {     // define the structure of a partialKey\r\n        string x;\r\n        string y;\r\n    }\r\n\r\n    PartialKey[] public partialKeys;  // dynamic size array that stores the partial keys received by the devices\r\n    uint public THRESHOLD;   // minimum numeber of shares required to reconstruct the secret\r\n    uint public currentSharesNumber = 0;    // current number of partial keys in the smart contract\r\n    string[] public publicKey;    // public key that decrypts the shares encrypted by horcruxes with their private key\r\n    // it's an array because since it's a very long string there's the risk of going out of gas if we get it from a \r\n    // single big transaction so we divide it in smaller substrings\r\n\r\n\r\n    function setEnableRevelation(bool _flag) private {\r\n        enableRevelation = _flag;\r\n        /*if (_flag) {\r\n            // if revelation was disabled just setting enableRevelation to true is not enough,\r\n            // we have to update the timeout to a future value as well\r\n            setTimeout(timeSpan);\r\n        }*/\r\n    }\r\n\r\n    function instantRevelation() private {\r\n        // by setting the timeout to the current timestamp I make it expire\r\n        timeout = block.timestamp;\r\n        enableRevelation = true;\r\n    }\r\n\r\n    function inhibitRevelation() private {\r\n        // we increase the timeout to inhibit revelation for one more time span\r\n        timeout += timeSpan;\r\n    }\r\n\r\n    // FUNCTION THAT DECIDES WHAT ACTION TO EXECUTE ACCORDING TO THE PASSWORD INSERTED\r\n    function action(string memory _password) public returns(string memory) {\r\n        if (keccak256(abi.encodePacked(_password)) == keccak256(abi.encodePacked(passwordInhibit))) {\r\n            inhibitRevelation();\r\n            return string(abi.encodePacked(\"Secret inhibited for \", timeSpan, \" seconds more\"));\r\n        }\r\n        else if (keccak256(abi.encodePacked(_password)) == keccak256(abi.encodePacked(passwordLock))) {\r\n            setEnableRevelation(false);\r\n            return \"Secret revelation disabled for undefined time\";\r\n        }\r\n        /*else if (keccak256(abi.encodePacked(_password)) == keccak256(abi.encodePacked(passwordUnlock))) {\r\n            setEnableRevelation(true);\r\n            return string(abi.encodePacked(\"Secret revelation enabled. The secret will be revealed \",\r\n                                            timeSpan, \" seconds from now\"));\r\n        }*/\r\n        else if (keccak256(abi.encodePacked(_password)) == keccak256(abi.encodePacked(passwordImmediateReveal))) {\r\n            instantRevelation();\r\n            return \"The secret has been revealed!\";\r\n        } else {\r\n            return \"Unauthorized! The password inserted is not valid.\";\r\n        }\r\n    }\r\n\r\n    // CHECK IF THE CONDITIONS FOR REVELATION ARE MET \r\n    // This function is called by the devices that monitor the smart contract\r\n    function checkReveal() public view returns(bool){\r\n        //requestCounter++;   // modify the state of the contract in order to mine another block and update the timestamp\r\n        return ((block.timestamp > timeout) && enableRevelation);\r\n    }\r\n\r\n    \r\n    // FUNCTIONS THAT ALLOW THE SMART CONTRACT TO RECEIVE PARTIAL KEYS FROM THE DEVICES\r\n    // AND USE THEM TO RECONSTRUCT THE SECRET KEY\r\n    function sendPartialKey(string memory _partialKey_x, string memory _partialKey_y) public {\r\n        PartialKey memory partialKey = PartialKey(_partialKey_x, _partialKey_y);\r\n        partialKeys.push(partialKey);\r\n        currentSharesNumber = partialKeys.length;\r\n    }\r\n\r\n    // FUNCTION THAT RETURNS THE NUMBER OF SUBSTRINGS OF THE PUBLIC KEY\r\n    function getPublicKeySubstringsNumber() public view returns (uint) {\r\n        return publicKey.length;\r\n    }\r\n\r\n    // CLEAR PUBLIC KEY ARRAY\r\n    function clearPublicKey() public {\r\n        delete publicKey;\r\n        // equivalent publicKey.length = 0\r\n    }\r\n    \r\n\r\n    // SETTERS\r\n    function setFileHash(string memory _fileHash) public {\r\n        fileHash = _fileHash;\r\n    }\r\n    function setPasswordInhibit(string memory _passwordInhibit) public {\r\n        passwordInhibit = _passwordInhibit;\r\n    }\r\n    function setPasswordLock(string memory _passwordLock) public {\r\n        passwordLock = _passwordLock;\r\n    }\r\n    /*function setPasswordUnlock(string memory _passwordUnlock) public {\r\n        passwordUnlock = _passwordUnlock;\r\n    }*/\r\n    function setPasswordImmediateReveal(string memory _passwordImmediateReveal) public {\r\n        passwordImmediateReveal = _passwordImmediateReveal;\r\n    }\r\n    function setTimeout(uint256 _time) public {\r\n        timeSpan = _time;\r\n        timeout = block.timestamp + timeSpan;\r\n    }\r\n    function setThreshold(uint _threshold) public{\r\n        THRESHOLD = _threshold;\r\n    }\r\n    function setPublicKey(string memory _publicKey) public {\r\n        publicKey.push(_publicKey);\r\n    }\r\n}",
  "sourcePath": "D:\\Desktop\\Tesi\\decentralized_secret_managing_blockchain\\contracts\\SmartContract.sol",
  "compiler": {
    "name": "solc",
    "version": "0.5.16+commit.9c3226ce.Emscripten.clang"
  },
  "schemaVersion": "3.4.3",
  "updatedAt": "2021-10-31T15:05:18.938Z",
  "networkType": "ethereum",
  "devdoc": {
    "author": ": Andrei-Stefan Blindu",
    "methods": {}
  },
  "userdoc": {
    "methods": {}
  }
}