{
  "contractName": "SmartContract",
  "abi": [
    {
      "constant": true,
      "inputs": [],
      "name": "THRESHOLD",
      "outputs": [
        {
          "internalType": "uint256",
          "name": "",
          "type": "uint256"
        }
      ],
      "payable": false,
      "stateMutability": "view",
      "type": "function"
    },
    {
      "constant": true,
      "inputs": [],
      "name": "currentSharesNumber",
      "outputs": [
        {
          "internalType": "uint256",
          "name": "",
          "type": "uint256"
        }
      ],
      "payable": false,
      "stateMutability": "view",
      "type": "function"
    },
    {
      "constant": true,
      "inputs": [],
      "name": "fileHash",
      "outputs": [
        {
          "internalType": "string",
          "name": "",
          "type": "string"
        }
      ],
      "payable": false,
      "stateMutability": "view",
      "type": "function"
    },
    {
      "constant": true,
      "inputs": [
        {
          "internalType": "uint256",
          "name": "",
          "type": "uint256"
        }
      ],
      "name": "partialKeys",
      "outputs": [
        {
          "internalType": "uint256",
          "name": "x",
          "type": "uint256"
        },
        {
          "internalType": "uint256",
          "name": "y",
          "type": "uint256"
        }
      ],
      "payable": false,
      "stateMutability": "view",
      "type": "function"
    },
    {
      "constant": true,
      "inputs": [],
      "name": "secretKey",
      "outputs": [
        {
          "internalType": "uint256",
          "name": "",
          "type": "uint256"
        }
      ],
      "payable": false,
      "stateMutability": "view",
      "type": "function"
    },
    {
      "constant": true,
      "inputs": [],
      "name": "timeout",
      "outputs": [
        {
          "internalType": "uint256",
          "name": "",
          "type": "uint256"
        }
      ],
      "payable": false,
      "stateMutability": "view",
      "type": "function"
    },
    {
      "constant": false,
      "inputs": [
        {
          "internalType": "string",
          "name": "_password",
          "type": "string"
        }
      ],
      "name": "action",
      "outputs": [
        {
          "internalType": "string",
          "name": "",
          "type": "string"
        }
      ],
      "payable": false,
      "stateMutability": "nonpayable",
      "type": "function"
    },
    {
      "constant": false,
      "inputs": [],
      "name": "checkReveal",
      "outputs": [
        {
          "internalType": "bool",
          "name": "",
          "type": "bool"
        }
      ],
      "payable": false,
      "stateMutability": "nonpayable",
      "type": "function"
    },
    {
      "constant": false,
      "inputs": [
        {
          "internalType": "uint256",
          "name": "_partialKey_x",
          "type": "uint256"
        },
        {
          "internalType": "uint256",
          "name": "_partialKey_y",
          "type": "uint256"
        }
      ],
      "name": "sendPartialKey",
      "outputs": [],
      "payable": false,
      "stateMutability": "nonpayable",
      "type": "function"
    },
    {
      "constant": false,
      "inputs": [
        {
          "internalType": "string",
          "name": "_fileHash",
          "type": "string"
        }
      ],
      "name": "setFileHash",
      "outputs": [],
      "payable": false,
      "stateMutability": "nonpayable",
      "type": "function"
    },
    {
      "constant": false,
      "inputs": [
        {
          "internalType": "string",
          "name": "_passwordInhibit",
          "type": "string"
        }
      ],
      "name": "setPasswordInhibit",
      "outputs": [],
      "payable": false,
      "stateMutability": "nonpayable",
      "type": "function"
    },
    {
      "constant": false,
      "inputs": [
        {
          "internalType": "string",
          "name": "_passwordLock",
          "type": "string"
        }
      ],
      "name": "setPasswordLock",
      "outputs": [],
      "payable": false,
      "stateMutability": "nonpayable",
      "type": "function"
    },
    {
      "constant": false,
      "inputs": [
        {
          "internalType": "string",
          "name": "_passwordImmediateReveal",
          "type": "string"
        }
      ],
      "name": "setPasswordImmediateReveal",
      "outputs": [],
      "payable": false,
      "stateMutability": "nonpayable",
      "type": "function"
    },
    {
      "constant": false,
      "inputs": [
        {
          "internalType": "uint256",
          "name": "_time",
          "type": "uint256"
        }
      ],
      "name": "setTimeout",
      "outputs": [],
      "payable": false,
      "stateMutability": "nonpayable",
      "type": "function"
    },
    {
      "constant": false,
      "inputs": [
        {
          "internalType": "uint256",
          "name": "_threshold",
          "type": "uint256"
        }
      ],
      "name": "setThreshold",
      "outputs": [],
      "payable": false,
      "stateMutability": "nonpayable",
      "type": "function"
    }
  ],
  "bytecode": "0x60806040526001600560006101000a81548160ff02191690831515021790555060006008556000600b5534801561003557600080fd5b50610ec0806100456000396000f3fe608060405234801561001057600080fd5b50600436106100f55760003560e01c806370dea79a11610097578063aaf6c74011610066578063aaf6c7401461054e578063c58a34cc14610609578063caa5c2aa14610637578063d1939b5a14610659576100f5565b806370dea79a146103b0578063785ffb37146103ce578063960bfe04146103ec57806399983be01461041a576100f5565b806324c8c698116100d357806324c8c6981461021c5780633a2077fa1461029f578063510e2f9c146102bd57806369b79b1314610378576100f5565b8063066bd405146100fa5780630e9637f51461011857806317f916d014610161575b600080fd5b610102610714565b6040518082815260200191505060405180910390f35b6101446004803603602081101561012e57600080fd5b810190808035906020019092919050505061071a565b604051808381526020018281526020019250505060405180910390f35b61021a6004803603602081101561017757600080fd5b810190808035906020019064010000000081111561019457600080fd5b8201836020820111156101a657600080fd5b803590602001918460018302840111640100000000831117156101c857600080fd5b91908080601f016020809104026020016040519081016040528093929190818152602001838380828437600081840152601f19601f82011690508083019250505050505050919291929050505061074b565b005b610224610765565b6040518080602001828103825283818151815260200191508051906020019080838360005b83811015610264578082015181840152602081019050610249565b50505050905090810190601f1680156102915780820380516001836020036101000a031916815260200191505b509250505060405180910390f35b6102a7610803565b6040518082815260200191505060405180910390f35b610376600480360360208110156102d357600080fd5b81019080803590602001906401000000008111156102f057600080fd5b82018360208201111561030257600080fd5b8035906020019184600183028401116401000000008311171561032457600080fd5b91908080601f016020809104026020016040519081016040528093929190818152602001838380828437600081840152601f19601f820116905080830192505050505050509192919290505050610809565b005b6103ae6004803603604081101561038e57600080fd5b810190808035906020019092919080359060200190929190505050610823565b005b6103b8610898565b6040518082815260200191505060405180910390f35b6103d661089e565b6040518082815260200191505060405180910390f35b6104186004803603602081101561040257600080fd5b81019080803590602001909291905050506108a4565b005b6104d36004803603602081101561043057600080fd5b810190808035906020019064010000000081111561044d57600080fd5b82018360208201111561045f57600080fd5b8035906020019184600183028401116401000000008311171561048157600080fd5b91908080601f016020809104026020016040519081016040528093929190818152602001838380828437600081840152601f19601f8201169050808301925050505050505091929192905050506108ae565b6040518080602001828103825283818151815260200191508051906020019080838360005b838110156105135780820151818401526020810190506104f8565b50505050905090810190601f1680156105405780820380516001836020036101000a031916815260200191505b509250505060405180910390f35b6106076004803603602081101561056457600080fd5b810190808035906020019064010000000081111561058157600080fd5b82018360208201111561059357600080fd5b803590602001918460018302840111640100000000831117156105b557600080fd5b91908080601f016020809104026020016040519081016040528093929190818152602001838380828437600081840152601f19601f820116905080830192505050505050509192919290505050610c9a565b005b6106356004803603602081101561061f57600080fd5b8101908080359060200190929190505050610cb4565b005b61063f610cc9565b604051808215151515815260200191505060405180910390f35b6107126004803603602081101561066f57600080fd5b810190808035906020019064010000000081111561068c57600080fd5b82018360208201111561069e57600080fd5b803590602001918460018302840111640100000000831117156106c057600080fd5b91908080601f016020809104026020016040519081016040528093929190818152602001838380828437600081840152601f19601f820116905080830192505050505050509192919290505050610cff565b005b600b5481565b6009818154811061072757fe5b90600052602060002090600202016000915090508060000154908060010154905082565b8060049080519060200190610761929190610d6e565b5050565b60008054600181600116156101000203166002900480601f0160208091040260200160405190810160405280929190818152602001828054600181600116156101000203166002900480156107fb5780601f106107d0576101008083540402835291602001916107fb565b820191906000526020600020905b8154815290600101906020018083116107de57829003601f168201915b505050505081565b60015481565b806003908051906020019061081f929190610d6e565b5050565b61082b610dee565b6040518060400160405280848152602001838152509050600981908060018154018082558091505090600182039060005260206000209060020201600090919290919091506000820151816000015560208201518160010155505050600980549050600b81905550505050565b60065481565b600a5481565b80600a8190555050565b6060600260405160200180828054600181600116156101000203166002900480156109105780601f106108ee576101008083540402835291820191610910565b820191906000526020600020905b8154815290600101906020018083116108fc575b505091505060405160208183030381529060405280519060200120826040516020018082805190602001908083835b60208310610962578051825260208201915060208101905060208303925061093f565b6001836020036101000a038019825116818451168082178552505050505050905001915050604051602081830303815290604052805190602001201415610a24576109ab610d19565b60075460405160200180807f53656372657420696e6869626974656420666f72200000000000000000000000815250601501828152602001807f207365636f6e6473206d6f726500000000000000000000000000000000000000815250600d019150506040516020818303038152906040529050610c95565b60036040516020018082805460018160011615610100020316600290048015610a845780601f10610a62576101008083540402835291820191610a84565b820191906000526020600020905b815481529060010190602001808311610a70575b505091505060405160208183030381529060405280519060200120826040516020018082805190602001908083835b60208310610ad65780518252602082019150602081019050602083039250610ab3565b6001836020036101000a038019825116818451168082178552505050505050905001915050604051602081830303815290604052805190602001201415610b4157610b216000610d2d565b6040518060600160405280602d8152602001610e2e602d91399050610c95565b60046040516020018082805460018160011615610100020316600290048015610ba15780601f10610b7f576101008083540402835291820191610ba1565b820191906000526020600020905b815481529060010190602001808311610b8d575b505091505060405160208183030381529060405280519060200120826040516020018082805190602001908083835b60208310610bf35780518252602082019150602081019050602083039250610bd0565b6001836020036101000a038019825116818451168082178552505050505050905001915050604051602081830303815290604052805190602001201415610c7957610c3c610d4a565b6040518060400160405280601d81526020017f5468652073656372657420686173206265656e2072657665616c6564210000008152509050610c95565b604051806060016040528060318152602001610e5b6031913990505b919050565b8060009080519060200190610cb0929190610d6e565b5050565b80600781905550600754420160068190555050565b600060086000815480929190600101919050555060065442118015610cfa5750600560009054906101000a900460ff165b905090565b8060029080519060200190610d15929190610d6e565b5050565b600754600660008282540192505081905550565b80600560006101000a81548160ff02191690831515021790555050565b426006819055506001600560006101000a81548160ff021916908315150217905550565b828054600181600116156101000203166002900490600052602060002090601f016020900481019282601f10610daf57805160ff1916838001178555610ddd565b82800160010185558215610ddd579182015b82811115610ddc578251825591602001919060010190610dc1565b5b509050610dea9190610e08565b5090565b604051806040016040528060008152602001600081525090565b610e2a91905b80821115610e26576000816000905550600101610e0e565b5090565b9056fe53656372657420726576656c6174696f6e2064697361626c656420666f7220756e646566696e65642074696d65556e617574686f72697a656421205468652070617373776f726420696e736572746564206973206e6f742076616c69642ea265627a7a7231582073b2c9d745b32f9a79954c5fbad3fbb09aa0d39d8af4c015f93198b582d52c4064736f6c63430005100032",
  "source": "// SPDX-License-Identifier: MIT\r\npragma solidity >=0.4.22 <0.9.0;\r\n\r\n/**\r\n@author : Andrei-Stefan Blindu\r\n */\r\n\r\ncontract SmartContract {\r\n    string public fileHash;     // hash to retrieve the encrypted file from IPFS\r\n    uint256 public secretKey;    // key to decrypt the secret file\r\n\r\n    string private passwordInhibit;  // to inhibit revelation for a certain time (timeout)\r\n    string private passwordLock;    // to disable revelation for undefined time\r\n    //string private passwordUnlock;  // to enable revelation\r\n    string private passwordImmediateReveal; // to reveal instantly\r\n\r\n    bool private enableRevelation = true;\r\n    uint256 public timeout; \r\n    uint256 private timeSpan;   // time span the secret remains inhibited for   \r\n    int private requestCounter = 0;\r\n\r\n    struct PartialKey {     // define the structure of a partialKey\r\n        uint256 x;\r\n        uint256 y;\r\n    }\r\n\r\n    PartialKey[] public partialKeys;  // dynamic size array that stores the partial keys received by the devices\r\n    uint public THRESHOLD;   // minimum numeber of shares required to reconstruct the secret\r\n    uint public currentSharesNumber = 0;    // current number of partial keys in the smart contract\r\n\r\n\r\n    function setEnableRevelation(bool _flag) private {\r\n        enableRevelation = _flag;\r\n        /*if (_flag) {\r\n            // if revelation was disabled just setting enableRevelation to true is not enough,\r\n            // we have to update the timeout to a future value as well\r\n            setTimeout(timeSpan);\r\n        }*/\r\n    }\r\n\r\n    function instantRevelation() private {\r\n        // by setting the timeout to the current timestamp I make it expire\r\n        timeout = block.timestamp;\r\n        enableRevelation = true;\r\n    }\r\n\r\n    function inhibitRevelation() private {\r\n        // we increase the timeout to inhibit revelation for one more time span\r\n        timeout += timeSpan;\r\n    }\r\n\r\n    // FUNCTION THAT DECIDES WHAT ACTION TO EXECUTE ACCORDING TO THE PASSWORD INSERTED\r\n    function action(string memory _password) public returns(string memory) {\r\n        if (keccak256(abi.encodePacked(_password)) == keccak256(abi.encodePacked(passwordInhibit))) {\r\n            inhibitRevelation();\r\n            return string(abi.encodePacked(\"Secret inhibited for \", timeSpan, \" seconds more\"));\r\n        }\r\n        else if (keccak256(abi.encodePacked(_password)) == keccak256(abi.encodePacked(passwordLock))) {\r\n            setEnableRevelation(false);\r\n            return \"Secret revelation disabled for undefined time\";\r\n        }\r\n        /*else if (keccak256(abi.encodePacked(_password)) == keccak256(abi.encodePacked(passwordUnlock))) {\r\n            setEnableRevelation(true);\r\n            return string(abi.encodePacked(\"Secret revelation enabled. The secret will be revealed \",\r\n                                            timeSpan, \" seconds from now\"));\r\n        }*/\r\n        else if (keccak256(abi.encodePacked(_password)) == keccak256(abi.encodePacked(passwordImmediateReveal))) {\r\n            instantRevelation();\r\n            return \"The secret has been revealed!\";\r\n        } else {\r\n            return \"Unauthorized! The password inserted is not valid.\";\r\n        }\r\n    }\r\n\r\n    // CHECK IF THE CONDITIONS FOR REVELATION ARE MET \r\n    // This function is called by the devices that monitor the smart contract\r\n    function checkReveal() public returns(bool){\r\n        requestCounter++;   // modify the state of the contract in order to mine another block and update the timestamp\r\n        return ((block.timestamp > timeout) && enableRevelation);\r\n    }\r\n\r\n    \r\n    // FUNCTIONS THAT ALLOW THE SMART CONTRACT TO RECEIVE PARTIAL KEYS FROM THE DEVICES\r\n    // AND USE THEM TO RECONSTRUCT THE SECRET KEY\r\n    function sendPartialKey(uint256 _partialKey_x, uint256 _partialKey_y) public {\r\n        PartialKey memory partialKey = PartialKey(_partialKey_x, _partialKey_y);\r\n        partialKeys.push(partialKey);\r\n        currentSharesNumber = partialKeys.length;\r\n    }\r\n    \r\n\r\n    // SETTERS\r\n    function setFileHash(string memory _fileHash) public {\r\n        fileHash = _fileHash;\r\n    }\r\n    function setPasswordInhibit(string memory _passwordInhibit) public {\r\n        passwordInhibit = _passwordInhibit;\r\n    }\r\n    function setPasswordLock(string memory _passwordLock) public {\r\n        passwordLock = _passwordLock;\r\n    }\r\n    /*function setPasswordUnlock(string memory _passwordUnlock) public {\r\n        passwordUnlock = _passwordUnlock;\r\n    }*/\r\n    function setPasswordImmediateReveal(string memory _passwordImmediateReveal) public {\r\n        passwordImmediateReveal = _passwordImmediateReveal;\r\n    }\r\n    function setTimeout(uint256 _time) public {\r\n        timeSpan = _time;\r\n        timeout = block.timestamp + timeSpan;\r\n    }\r\n    function setThreshold(uint _threshold) public{\r\n        THRESHOLD = _threshold;\r\n    }\r\n}",
  "sourcePath": "D:\\Desktop\\Tesi\\decentralized_secret_managing_blockchain\\contracts\\SmartContract.sol",
  "compiler": {
    "name": "solc",
    "version": "0.5.16+commit.9c3226ce.Emscripten.clang"
  },
  "schemaVersion": "3.4.3",
  "updatedAt": "2021-10-29T06:28:04.912Z",
  "networkType": "ethereum",
  "devdoc": {
    "author": ": Andrei-Stefan Blindu",
    "methods": {}
  },
  "userdoc": {
    "methods": {}
  }
}