{
  "contractName": "SmartContract",
  "abi": [
    {
      "constant": true,
      "inputs": [],
      "name": "THRESHOLD",
      "outputs": [
        {
          "internalType": "uint256",
          "name": "",
          "type": "uint256"
        }
      ],
      "payable": false,
      "stateMutability": "view",
      "type": "function"
    },
    {
      "constant": true,
      "inputs": [],
      "name": "currentSharesNumber",
      "outputs": [
        {
          "internalType": "uint256",
          "name": "",
          "type": "uint256"
        }
      ],
      "payable": false,
      "stateMutability": "view",
      "type": "function"
    },
    {
      "constant": true,
      "inputs": [],
      "name": "fileHash",
      "outputs": [
        {
          "internalType": "string",
          "name": "",
          "type": "string"
        }
      ],
      "payable": false,
      "stateMutability": "view",
      "type": "function"
    },
    {
      "constant": true,
      "inputs": [
        {
          "internalType": "uint256",
          "name": "",
          "type": "uint256"
        }
      ],
      "name": "partialKeys",
      "outputs": [
        {
          "internalType": "uint256",
          "name": "x",
          "type": "uint256"
        },
        {
          "internalType": "uint256",
          "name": "y",
          "type": "uint256"
        }
      ],
      "payable": false,
      "stateMutability": "view",
      "type": "function"
    },
    {
      "constant": true,
      "inputs": [
        {
          "internalType": "uint256",
          "name": "",
          "type": "uint256"
        }
      ],
      "name": "publicKey",
      "outputs": [
        {
          "internalType": "string",
          "name": "",
          "type": "string"
        }
      ],
      "payable": false,
      "stateMutability": "view",
      "type": "function"
    },
    {
      "constant": true,
      "inputs": [],
      "name": "timeout",
      "outputs": [
        {
          "internalType": "uint256",
          "name": "",
          "type": "uint256"
        }
      ],
      "payable": false,
      "stateMutability": "view",
      "type": "function"
    },
    {
      "constant": false,
      "inputs": [
        {
          "internalType": "string",
          "name": "_password",
          "type": "string"
        }
      ],
      "name": "action",
      "outputs": [
        {
          "internalType": "string",
          "name": "",
          "type": "string"
        }
      ],
      "payable": false,
      "stateMutability": "nonpayable",
      "type": "function"
    },
    {
      "constant": false,
      "inputs": [],
      "name": "checkReveal",
      "outputs": [
        {
          "internalType": "bool",
          "name": "",
          "type": "bool"
        }
      ],
      "payable": false,
      "stateMutability": "nonpayable",
      "type": "function"
    },
    {
      "constant": false,
      "inputs": [
        {
          "internalType": "uint256",
          "name": "_partialKey_x",
          "type": "uint256"
        },
        {
          "internalType": "uint256",
          "name": "_partialKey_y",
          "type": "uint256"
        }
      ],
      "name": "sendPartialKey",
      "outputs": [],
      "payable": false,
      "stateMutability": "nonpayable",
      "type": "function"
    },
    {
      "constant": true,
      "inputs": [],
      "name": "getPublicKeySubstringsNumber",
      "outputs": [
        {
          "internalType": "uint256",
          "name": "",
          "type": "uint256"
        }
      ],
      "payable": false,
      "stateMutability": "view",
      "type": "function"
    },
    {
      "constant": false,
      "inputs": [
        {
          "internalType": "string",
          "name": "_fileHash",
          "type": "string"
        }
      ],
      "name": "setFileHash",
      "outputs": [],
      "payable": false,
      "stateMutability": "nonpayable",
      "type": "function"
    },
    {
      "constant": false,
      "inputs": [
        {
          "internalType": "string",
          "name": "_passwordInhibit",
          "type": "string"
        }
      ],
      "name": "setPasswordInhibit",
      "outputs": [],
      "payable": false,
      "stateMutability": "nonpayable",
      "type": "function"
    },
    {
      "constant": false,
      "inputs": [
        {
          "internalType": "string",
          "name": "_passwordLock",
          "type": "string"
        }
      ],
      "name": "setPasswordLock",
      "outputs": [],
      "payable": false,
      "stateMutability": "nonpayable",
      "type": "function"
    },
    {
      "constant": false,
      "inputs": [
        {
          "internalType": "string",
          "name": "_passwordImmediateReveal",
          "type": "string"
        }
      ],
      "name": "setPasswordImmediateReveal",
      "outputs": [],
      "payable": false,
      "stateMutability": "nonpayable",
      "type": "function"
    },
    {
      "constant": false,
      "inputs": [
        {
          "internalType": "uint256",
          "name": "_time",
          "type": "uint256"
        }
      ],
      "name": "setTimeout",
      "outputs": [],
      "payable": false,
      "stateMutability": "nonpayable",
      "type": "function"
    },
    {
      "constant": false,
      "inputs": [
        {
          "internalType": "uint256",
          "name": "_threshold",
          "type": "uint256"
        }
      ],
      "name": "setThreshold",
      "outputs": [],
      "payable": false,
      "stateMutability": "nonpayable",
      "type": "function"
    },
    {
      "constant": false,
      "inputs": [
        {
          "internalType": "string",
          "name": "_publicKey",
          "type": "string"
        }
      ],
      "name": "setPublicKey",
      "outputs": [],
      "payable": false,
      "stateMutability": "nonpayable",
      "type": "function"
    }
  ],
  "bytecode": "0x60806040526001600460006101000a81548160ff02191690831515021790555060006007556000600a5534801561003557600080fd5b5061113a806100456000396000f3fe608060405234801561001057600080fd5b506004361061010b5760003560e01c806370dea79a116100a257806399983be01161007157806399983be014610592578063aaf6c740146106c6578063c58a34cc14610781578063caa5c2aa146107af578063d1939b5a146107d15761010b565b806370dea79a14610481578063785ffb371461049f5780638940aebe146104bd578063960bfe04146105645761010b565b8063510e2f9c116100de578063510e2f9c146102b55780635632ca371461037057806369b79b131461038e5780636f6fc077146103c65761010b565b8063066bd405146101105780630e9637f51461012e57806317f916d01461017757806324c8c69814610232575b600080fd5b61011861088c565b6040518082815260200191505060405180910390f35b61015a6004803603602081101561014457600080fd5b8101908080359060200190929190505050610892565b604051808381526020018281526020019250505060405180910390f35b6102306004803603602081101561018d57600080fd5b81019080803590602001906401000000008111156101aa57600080fd5b8201836020820111156101bc57600080fd5b803590602001918460018302840111640100000000831117156101de57600080fd5b91908080601f016020809104026020016040519081016040528093929190818152602001838380828437600081840152601f19601f8201169050808301925050505050505091929192905050506108c3565b005b61023a6108dd565b6040518080602001828103825283818151815260200191508051906020019080838360005b8381101561027a57808201518184015260208101905061025f565b50505050905090810190601f1680156102a75780820380516001836020036101000a031916815260200191505b509250505060405180910390f35b61036e600480360360208110156102cb57600080fd5b81019080803590602001906401000000008111156102e857600080fd5b8201836020820111156102fa57600080fd5b8035906020019184600183028401116401000000008311171561031c57600080fd5b91908080601f016020809104026020016040519081016040528093929190818152602001838380828437600081840152601f19601f82011690508083019250505050505050919291929050505061097b565b005b610378610995565b6040518082815260200191505060405180910390f35b6103c4600480360360408110156103a457600080fd5b8101908080359060200190929190803590602001909291905050506109a2565b005b61047f600480360360208110156103dc57600080fd5b81019080803590602001906401000000008111156103f957600080fd5b82018360208201111561040b57600080fd5b8035906020019184600183028401116401000000008311171561042d57600080fd5b91908080601f016020809104026020016040519081016040528093929190818152602001838380828437600081840152601f19601f820116905080830192505050505050509192919290505050610a17565b005b610489610a59565b6040518082815260200191505060405180910390f35b6104a7610a5f565b6040518082815260200191505060405180910390f35b6104e9600480360360208110156104d357600080fd5b8101908080359060200190929190505050610a65565b6040518080602001828103825283818151815260200191508051906020019080838360005b8381101561052957808201518184015260208101905061050e565b50505050905090810190601f1680156105565780820380516001836020036101000a031916815260200191505b509250505060405180910390f35b6105906004803603602081101561057a57600080fd5b8101908080359060200190929190505050610b1e565b005b61064b600480360360208110156105a857600080fd5b81019080803590602001906401000000008111156105c557600080fd5b8201836020820111156105d757600080fd5b803590602001918460018302840111640100000000831117156105f957600080fd5b91908080601f016020809104026020016040519081016040528093929190818152602001838380828437600081840152601f19601f820116905080830192505050505050509192919290505050610b28565b6040518080602001828103825283818151815260200191508051906020019080838360005b8381101561068b578082015181840152602081019050610670565b50505050905090810190601f1680156106b85780820380516001836020036101000a031916815260200191505b509250505060405180910390f35b61077f600480360360208110156106dc57600080fd5b81019080803590602001906401000000008111156106f957600080fd5b82018360208201111561070b57600080fd5b8035906020019184600183028401116401000000008311171561072d57600080fd5b91908080601f016020809104026020016040519081016040528093929190818152602001838380828437600081840152601f19601f820116905080830192505050505050509192919290505050610f14565b005b6107ad6004803603602081101561079757600080fd5b8101908080359060200190929190505050610f2e565b005b6107b7610f43565b604051808215151515815260200191505060405180910390f35b61088a600480360360208110156107e757600080fd5b810190808035906020019064010000000081111561080457600080fd5b82018360208201111561081657600080fd5b8035906020019184600183028401116401000000008311171561083857600080fd5b91908080601f016020809104026020016040519081016040528093929190818152602001838380828437600081840152601f19601f820116905080830192505050505050509192919290505050610f79565b005b600a5481565b6008818154811061089f57fe5b90600052602060002090600202016000915090508060000154908060010154905082565b80600390805190602001906108d9929190610fe8565b5050565b60008054600181600116156101000203166002900480601f0160208091040260200160405190810160405280929190818152602001828054600181600116156101000203166002900480156109735780601f1061094857610100808354040283529160200191610973565b820191906000526020600020905b81548152906001019060200180831161095657829003601f168201915b505050505081565b8060029080519060200190610991929190610fe8565b5050565b6000600b80549050905090565b6109aa611068565b6040518060400160405280848152602001838152509050600881908060018154018082558091505090600182039060005260206000209060020201600090919290919091506000820151816000015560208201518160010155505050600880549050600a81905550505050565b600b819080600181540180825580915050906001820390600052602060002001600090919290919091509080519060200190610a54929190610fe8565b505050565b60055481565b60095481565b600b8181548110610a7257fe5b906000526020600020016000915090508054600181600116156101000203166002900480601f016020809104026020016040519081016040528092919081815260200182805460018160011615610100020316600290048015610b165780601f10610aeb57610100808354040283529160200191610b16565b820191906000526020600020905b815481529060010190602001808311610af957829003601f168201915b505050505081565b8060098190555050565b606060016040516020018082805460018160011615610100020316600290048015610b8a5780601f10610b68576101008083540402835291820191610b8a565b820191906000526020600020905b815481529060010190602001808311610b76575b505091505060405160208183030381529060405280519060200120826040516020018082805190602001908083835b60208310610bdc5780518252602082019150602081019050602083039250610bb9565b6001836020036101000a038019825116818451168082178552505050505050905001915050604051602081830303815290604052805190602001201415610c9e57610c25610f93565b60065460405160200180807f53656372657420696e6869626974656420666f72200000000000000000000000815250601501828152602001807f207365636f6e6473206d6f726500000000000000000000000000000000000000815250600d019150506040516020818303038152906040529050610f0f565b60026040516020018082805460018160011615610100020316600290048015610cfe5780601f10610cdc576101008083540402835291820191610cfe565b820191906000526020600020905b815481529060010190602001808311610cea575b505091505060405160208183030381529060405280519060200120826040516020018082805190602001908083835b60208310610d505780518252602082019150602081019050602083039250610d2d565b6001836020036101000a038019825116818451168082178552505050505050905001915050604051602081830303815290604052805190602001201415610dbb57610d9b6000610fa7565b6040518060600160405280602d81526020016110a8602d91399050610f0f565b60036040516020018082805460018160011615610100020316600290048015610e1b5780601f10610df9576101008083540402835291820191610e1b565b820191906000526020600020905b815481529060010190602001808311610e07575b505091505060405160208183030381529060405280519060200120826040516020018082805190602001908083835b60208310610e6d5780518252602082019150602081019050602083039250610e4a565b6001836020036101000a038019825116818451168082178552505050505050905001915050604051602081830303815290604052805190602001201415610ef357610eb6610fc4565b6040518060400160405280601d81526020017f5468652073656372657420686173206265656e2072657665616c6564210000008152509050610f0f565b6040518060600160405280603181526020016110d56031913990505b919050565b8060009080519060200190610f2a929190610fe8565b5050565b80600681905550600654420160058190555050565b600060076000815480929190600101919050555060055442118015610f745750600460009054906101000a900460ff165b905090565b8060019080519060200190610f8f929190610fe8565b5050565b600654600560008282540192505081905550565b80600460006101000a81548160ff02191690831515021790555050565b426005819055506001600460006101000a81548160ff021916908315150217905550565b828054600181600116156101000203166002900490600052602060002090601f016020900481019282601f1061102957805160ff1916838001178555611057565b82800160010185558215611057579182015b8281111561105657825182559160200191906001019061103b565b5b5090506110649190611082565b5090565b604051806040016040528060008152602001600081525090565b6110a491905b808211156110a0576000816000905550600101611088565b5090565b9056fe53656372657420726576656c6174696f6e2064697361626c656420666f7220756e646566696e65642074696d65556e617574686f72697a656421205468652070617373776f726420696e736572746564206973206e6f742076616c69642ea265627a7a72315820f6cbacb93d7622c0a1114aacb69a4d65408290e9fe94eac327c65d3e8d8708e864736f6c63430005100032",
  "source": "// SPDX-License-Identifier: MIT\r\npragma solidity >=0.4.22 <0.9.0;\r\n\r\n/**\r\n@author : Andrei-Stefan Blindu\r\n */\r\n\r\ncontract SmartContract {\r\n    string public fileHash;     // hash to retrieve the encrypted file from IPFS\r\n    //uint256 public secretKey; (not needed)    // key to decrypt the secret file\r\n\r\n    string private passwordInhibit;  // to inhibit revelation for a certain time (timeout)\r\n    string private passwordLock;    // to disable revelation for undefined time\r\n    //string private passwordUnlock;  // to enable revelation\r\n    string private passwordImmediateReveal; // to reveal instantly\r\n\r\n    bool private enableRevelation = true;\r\n    uint256 public timeout; \r\n    uint256 private timeSpan;   // time span the secret remains inhibited for   \r\n    int private requestCounter = 0;\r\n\r\n    struct PartialKey {     // define the structure of a partialKey\r\n        uint256 x;\r\n        uint256 y;\r\n    }\r\n\r\n    PartialKey[] public partialKeys;  // dynamic size array that stores the partial keys received by the devices\r\n    uint public THRESHOLD;   // minimum numeber of shares required to reconstruct the secret\r\n    uint public currentSharesNumber = 0;    // current number of partial keys in the smart contract\r\n    string[] public publicKey;    // public key that decrypts the shares encrypted by horcruxes with their private key\r\n    // it's an array because since it's a very long string there's the risk of going out of gas if we get it from a \r\n    // single big transaction so we divide it in smaller substrings\r\n\r\n\r\n    function setEnableRevelation(bool _flag) private {\r\n        enableRevelation = _flag;\r\n        /*if (_flag) {\r\n            // if revelation was disabled just setting enableRevelation to true is not enough,\r\n            // we have to update the timeout to a future value as well\r\n            setTimeout(timeSpan);\r\n        }*/\r\n    }\r\n\r\n    function instantRevelation() private {\r\n        // by setting the timeout to the current timestamp I make it expire\r\n        timeout = block.timestamp;\r\n        enableRevelation = true;\r\n    }\r\n\r\n    function inhibitRevelation() private {\r\n        // we increase the timeout to inhibit revelation for one more time span\r\n        timeout += timeSpan;\r\n    }\r\n\r\n    // FUNCTION THAT DECIDES WHAT ACTION TO EXECUTE ACCORDING TO THE PASSWORD INSERTED\r\n    function action(string memory _password) public returns(string memory) {\r\n        if (keccak256(abi.encodePacked(_password)) == keccak256(abi.encodePacked(passwordInhibit))) {\r\n            inhibitRevelation();\r\n            return string(abi.encodePacked(\"Secret inhibited for \", timeSpan, \" seconds more\"));\r\n        }\r\n        else if (keccak256(abi.encodePacked(_password)) == keccak256(abi.encodePacked(passwordLock))) {\r\n            setEnableRevelation(false);\r\n            return \"Secret revelation disabled for undefined time\";\r\n        }\r\n        /*else if (keccak256(abi.encodePacked(_password)) == keccak256(abi.encodePacked(passwordUnlock))) {\r\n            setEnableRevelation(true);\r\n            return string(abi.encodePacked(\"Secret revelation enabled. The secret will be revealed \",\r\n                                            timeSpan, \" seconds from now\"));\r\n        }*/\r\n        else if (keccak256(abi.encodePacked(_password)) == keccak256(abi.encodePacked(passwordImmediateReveal))) {\r\n            instantRevelation();\r\n            return \"The secret has been revealed!\";\r\n        } else {\r\n            return \"Unauthorized! The password inserted is not valid.\";\r\n        }\r\n    }\r\n\r\n    // CHECK IF THE CONDITIONS FOR REVELATION ARE MET \r\n    // This function is called by the devices that monitor the smart contract\r\n    function checkReveal() public returns(bool){\r\n        requestCounter++;   // modify the state of the contract in order to mine another block and update the timestamp\r\n        return ((block.timestamp > timeout) && enableRevelation);\r\n    }\r\n\r\n    \r\n    // FUNCTIONS THAT ALLOW THE SMART CONTRACT TO RECEIVE PARTIAL KEYS FROM THE DEVICES\r\n    // AND USE THEM TO RECONSTRUCT THE SECRET KEY\r\n    function sendPartialKey(uint256 _partialKey_x, uint256 _partialKey_y) public {\r\n        PartialKey memory partialKey = PartialKey(_partialKey_x, _partialKey_y);\r\n        partialKeys.push(partialKey);\r\n        currentSharesNumber = partialKeys.length;\r\n    }\r\n\r\n    // FUNCTION THAT RETURNS THE NUMBER OF SUBSTRINGS OF THE PUBLIC KEY\r\n    function getPublicKeySubstringsNumber() public view returns (uint) {\r\n        return publicKey.length;\r\n    }\r\n    \r\n\r\n    // SETTERS\r\n    function setFileHash(string memory _fileHash) public {\r\n        fileHash = _fileHash;\r\n    }\r\n    function setPasswordInhibit(string memory _passwordInhibit) public {\r\n        passwordInhibit = _passwordInhibit;\r\n    }\r\n    function setPasswordLock(string memory _passwordLock) public {\r\n        passwordLock = _passwordLock;\r\n    }\r\n    /*function setPasswordUnlock(string memory _passwordUnlock) public {\r\n        passwordUnlock = _passwordUnlock;\r\n    }*/\r\n    function setPasswordImmediateReveal(string memory _passwordImmediateReveal) public {\r\n        passwordImmediateReveal = _passwordImmediateReveal;\r\n    }\r\n    function setTimeout(uint256 _time) public {\r\n        timeSpan = _time;\r\n        timeout = block.timestamp + timeSpan;\r\n    }\r\n    function setThreshold(uint _threshold) public{\r\n        THRESHOLD = _threshold;\r\n    }\r\n    function setPublicKey(string memory _publicKey) public {\r\n        publicKey.push(_publicKey);\r\n    }\r\n}",
  "sourcePath": "D:\\Desktop\\Tesi\\decentralized_secret_managing_blockchain\\contracts\\SmartContract.sol",
  "compiler": {
    "name": "solc",
    "version": "0.5.16+commit.9c3226ce.Emscripten.clang"
  },
  "schemaVersion": "3.4.3",
  "updatedAt": "2021-10-31T07:21:23.430Z",
  "networkType": "ethereum",
  "devdoc": {
    "author": ": Andrei-Stefan Blindu",
    "methods": {}
  },
  "userdoc": {
    "methods": {}
  }
}